{
  "contractName": "AgriSupplyChain",
  "abi": [
    {
      "inputs": [],
      "stateMutability": "nonpayable",
      "type": "constructor"
    },
    {
      "anonymous": false,
      "inputs": [
        {
          "indexed": true,
          "internalType": "address",
          "name": "actorAddress",
          "type": "address"
        },
        {
          "indexed": false,
          "internalType": "string",
          "name": "name",
          "type": "string"
        },
        {
          "indexed": false,
          "internalType": "string",
          "name": "role",
          "type": "string"
        }
      ],
      "name": "ActorRegistered",
      "type": "event"
    },
    {
      "anonymous": false,
      "inputs": [
        {
          "indexed": false,
          "internalType": "string",
          "name": "batchId",
          "type": "string"
        },
        {
          "indexed": false,
          "internalType": "uint256[]",
          "name": "productIds",
          "type": "uint256[]"
        }
      ],
      "name": "BatchCreated",
      "type": "event"
    },
    {
      "anonymous": false,
      "inputs": [
        {
          "indexed": true,
          "internalType": "address",
          "name": "farmAddress",
          "type": "address"
        },
        {
          "indexed": false,
          "internalType": "string",
          "name": "name",
          "type": "string"
        }
      ],
      "name": "FarmRegistered",
      "type": "event"
    },
    {
      "anonymous": false,
      "inputs": [
        {
          "indexed": true,
          "internalType": "uint256",
          "name": "productId",
          "type": "uint256"
        },
        {
          "indexed": true,
          "internalType": "address",
          "name": "reportedBy",
          "type": "address"
        },
        {
          "indexed": false,
          "internalType": "string",
          "name": "description",
          "type": "string"
        }
      ],
      "name": "IssueReported",
      "type": "event"
    },
    {
      "anonymous": false,
      "inputs": [
        {
          "indexed": true,
          "internalType": "address",
          "name": "from",
          "type": "address"
        },
        {
          "indexed": true,
          "internalType": "address",
          "name": "to",
          "type": "address"
        },
        {
          "indexed": false,
          "internalType": "uint256",
          "name": "amount",
          "type": "uint256"
        }
      ],
      "name": "PaymentProcessed",
      "type": "event"
    },
    {
      "anonymous": false,
      "inputs": [
        {
          "indexed": true,
          "internalType": "uint256",
          "name": "productId",
          "type": "uint256"
        },
        {
          "indexed": false,
          "internalType": "uint256",
          "name": "newPrice",
          "type": "uint256"
        }
      ],
      "name": "PriceUpdated",
      "type": "event"
    },
    {
      "anonymous": false,
      "inputs": [
        {
          "indexed": true,
          "internalType": "uint256",
          "name": "productId",
          "type": "uint256"
        },
        {
          "indexed": false,
          "internalType": "string",
          "name": "name",
          "type": "string"
        },
        {
          "indexed": true,
          "internalType": "address",
          "name": "farmer",
          "type": "address"
        }
      ],
      "name": "ProductCreated",
      "type": "event"
    },
    {
      "anonymous": false,
      "inputs": [
        {
          "indexed": true,
          "internalType": "uint256",
          "name": "productId",
          "type": "uint256"
        },
        {
          "indexed": false,
          "internalType": "uint256",
          "name": "expirationDate",
          "type": "uint256"
        }
      ],
      "name": "ProductExpirationSet",
      "type": "event"
    },
    {
      "anonymous": false,
      "inputs": [
        {
          "indexed": true,
          "internalType": "uint256",
          "name": "productId",
          "type": "uint256"
        },
        {
          "indexed": true,
          "internalType": "address",
          "name": "recalledBy",
          "type": "address"
        },
        {
          "indexed": false,
          "internalType": "string",
          "name": "reason",
          "type": "string"
        }
      ],
      "name": "ProductRecalled",
      "type": "event"
    },
    {
      "anonymous": false,
      "inputs": [
        {
          "indexed": true,
          "internalType": "uint256",
          "name": "productId",
          "type": "uint256"
        },
        {
          "indexed": false,
          "internalType": "enum AgriSupplyChain.ProductStatus",
          "name": "status",
          "type": "uint8"
        }
      ],
      "name": "ProductStatusUpdated",
      "type": "event"
    },
    {
      "anonymous": false,
      "inputs": [
        {
          "indexed": true,
          "internalType": "uint256",
          "name": "productId",
          "type": "uint256"
        },
        {
          "indexed": true,
          "internalType": "address",
          "name": "from",
          "type": "address"
        },
        {
          "indexed": true,
          "internalType": "address",
          "name": "to",
          "type": "address"
        }
      ],
      "name": "ProductTransferred",
      "type": "event"
    },
    {
      "anonymous": false,
      "inputs": [
        {
          "indexed": true,
          "internalType": "uint256",
          "name": "productId",
          "type": "uint256"
        },
        {
          "indexed": true,
          "internalType": "address",
          "name": "inspector",
          "type": "address"
        },
        {
          "indexed": false,
          "internalType": "bool",
          "name": "passed",
          "type": "bool"
        }
      ],
      "name": "QualityCheckPerformed",
      "type": "event"
    },
    {
      "anonymous": false,
      "inputs": [
        {
          "indexed": false,
          "internalType": "bytes32",
          "name": "role",
          "type": "bytes32"
        },
        {
          "indexed": false,
          "internalType": "address",
          "name": "account",
          "type": "address"
        }
      ],
      "name": "RoleGranted",
      "type": "event"
    },
    {
      "anonymous": false,
      "inputs": [
        {
          "indexed": false,
          "internalType": "bytes32",
          "name": "role",
          "type": "bytes32"
        },
        {
          "indexed": false,
          "internalType": "address",
          "name": "account",
          "type": "address"
        }
      ],
      "name": "RoleRevoked",
      "type": "event"
    },
    {
      "anonymous": false,
      "inputs": [
        {
          "indexed": true,
          "internalType": "uint256",
          "name": "shipmentId",
          "type": "uint256"
        },
        {
          "indexed": true,
          "internalType": "address",
          "name": "farm",
          "type": "address"
        },
        {
          "indexed": false,
          "internalType": "uint256[]",
          "name": "productIds",
          "type": "uint256[]"
        }
      ],
      "name": "ShipmentCreated",
      "type": "event"
    },
    {
      "anonymous": false,
      "inputs": [
        {
          "indexed": true,
          "internalType": "uint256",
          "name": "shipmentId",
          "type": "uint256"
        },
        {
          "indexed": false,
          "internalType": "enum AgriSupplyChain.ShipmentStatus",
          "name": "status",
          "type": "uint8"
        }
      ],
      "name": "ShipmentStatusUpdated",
      "type": "event"
    },
    {
      "anonymous": false,
      "inputs": [
        {
          "indexed": true,
          "internalType": "uint256",
          "name": "productId",
          "type": "uint256"
        },
        {
          "indexed": false,
          "internalType": "uint256",
          "name": "transportIndex",
          "type": "uint256"
        },
        {
          "indexed": false,
          "internalType": "enum AgriSupplyChain.TransportStatus",
          "name": "status",
          "type": "uint8"
        }
      ],
      "name": "TransportInfoUpdated",
      "type": "event"
    },
    {
      "inputs": [],
      "name": "DISTRIBUTOR_ROLE",
      "outputs": [
        {
          "internalType": "bytes32",
          "name": "",
          "type": "bytes32"
        }
      ],
      "stateMutability": "view",
      "type": "function",
      "constant": true
    },
    {
      "inputs": [],
      "name": "FARMER_ROLE",
      "outputs": [
        {
          "internalType": "bytes32",
          "name": "",
          "type": "bytes32"
        }
      ],
      "stateMutability": "view",
      "type": "function",
      "constant": true
    },
    {
      "inputs": [],
      "name": "PROCESSOR_ROLE",
      "outputs": [
        {
          "internalType": "bytes32",
          "name": "",
          "type": "bytes32"
        }
      ],
      "stateMutability": "view",
      "type": "function",
      "constant": true
    },
    {
      "inputs": [],
      "name": "QUALITY_INSPECTOR_ROLE",
      "outputs": [
        {
          "internalType": "bytes32",
          "name": "",
          "type": "bytes32"
        }
      ],
      "stateMutability": "view",
      "type": "function",
      "constant": true
    },
    {
      "inputs": [],
      "name": "RETAILER_ROLE",
      "outputs": [
        {
          "internalType": "bytes32",
          "name": "",
          "type": "bytes32"
        }
      ],
      "stateMutability": "view",
      "type": "function",
      "constant": true
    },
    {
      "inputs": [
        {
          "internalType": "address",
          "name": "",
          "type": "address"
        }
      ],
      "name": "actors",
      "outputs": [
        {
          "internalType": "bool",
          "name": "isRegistered",
          "type": "bool"
        },
        {
          "internalType": "string",
          "name": "name",
          "type": "string"
        },
        {
          "internalType": "string",
          "name": "role",
          "type": "string"
        }
      ],
      "stateMutability": "view",
      "type": "function",
      "constant": true
    },
    {
      "inputs": [
        {
          "internalType": "address",
          "name": "",
          "type": "address"
        }
      ],
      "name": "balances",
      "outputs": [
        {
          "internalType": "uint256",
          "name": "",
          "type": "uint256"
        }
      ],
      "stateMutability": "view",
      "type": "function",
      "constant": true
    },
    {
      "inputs": [
        {
          "internalType": "address",
          "name": "",
          "type": "address"
        }
      ],
      "name": "farms",
      "outputs": [
        {
          "internalType": "string",
          "name": "name",
          "type": "string"
        },
        {
          "internalType": "address",
          "name": "owner",
          "type": "address"
        },
        {
          "internalType": "bool",
          "name": "isRegistered",
          "type": "bool"
        }
      ],
      "stateMutability": "view",
      "type": "function",
      "constant": true
    },
    {
      "inputs": [
        {
          "internalType": "uint256",
          "name": "",
          "type": "uint256"
        },
        {
          "internalType": "uint256",
          "name": "",
          "type": "uint256"
        }
      ],
      "name": "issues",
      "outputs": [
        {
          "internalType": "address",
          "name": "reportedBy",
          "type": "address"
        },
        {
          "internalType": "uint256",
          "name": "timestamp",
          "type": "uint256"
        },
        {
          "internalType": "string",
          "name": "description",
          "type": "string"
        }
      ],
      "stateMutability": "view",
      "type": "function",
      "constant": true
    },
    {
      "inputs": [],
      "name": "owner",
      "outputs": [
        {
          "internalType": "address",
          "name": "",
          "type": "address"
        }
      ],
      "stateMutability": "view",
      "type": "function",
      "constant": true
    },
    {
      "inputs": [],
      "name": "productCount",
      "outputs": [
        {
          "internalType": "uint256",
          "name": "",
          "type": "uint256"
        }
      ],
      "stateMutability": "view",
      "type": "function",
      "constant": true
    },
    {
      "inputs": [
        {
          "internalType": "uint256",
          "name": "",
          "type": "uint256"
        },
        {
          "internalType": "uint256",
          "name": "",
          "type": "uint256"
        }
      ],
      "name": "productTransportHistory",
      "outputs": [
        {
          "internalType": "address",
          "name": "carrier",
          "type": "address"
        },
        {
          "internalType": "uint256",
          "name": "departureTime",
          "type": "uint256"
        },
        {
          "internalType": "uint256",
          "name": "estimatedArrivalTime",
          "type": "uint256"
        },
        {
          "internalType": "uint256",
          "name": "actualArrivalTime",
          "type": "uint256"
        },
        {
          "internalType": "string",
          "name": "sourceLocation",
          "type": "string"
        },
        {
          "internalType": "string",
          "name": "destinationLocation",
          "type": "string"
        },
        {
          "internalType": "enum AgriSupplyChain.TransportStatus",
          "name": "status",
          "type": "uint8"
        }
      ],
      "stateMutability": "view",
      "type": "function",
      "constant": true
    },
    {
      "inputs": [
        {
          "internalType": "uint256",
          "name": "",
          "type": "uint256"
        }
      ],
      "name": "products",
      "outputs": [
        {
          "internalType": "uint256",
          "name": "id",
          "type": "uint256"
        },
        {
          "internalType": "string",
          "name": "name",
          "type": "string"
        },
        {
          "internalType": "uint256",
          "name": "quantity",
          "type": "uint256"
        },
        {
          "internalType": "uint256",
          "name": "price",
          "type": "uint256"
        },
        {
          "internalType": "address",
          "name": "currentOwner",
          "type": "address"
        },
        {
          "internalType": "enum AgriSupplyChain.ProductStatus",
          "name": "status",
          "type": "uint8"
        },
        {
          "internalType": "string",
          "name": "originFarm",
          "type": "string"
        },
        {
          "internalType": "uint256",
          "name": "harvestDate",
          "type": "uint256"
        },
        {
          "internalType": "uint256",
          "name": "qualityCheckCount",
          "type": "uint256"
        },
        {
          "internalType": "string",
          "name": "batchId",
          "type": "string"
        },
        {
          "internalType": "uint256",
          "name": "expirationDate",
          "type": "uint256"
        }
      ],
      "stateMutability": "view",
      "type": "function",
      "constant": true
    },
    {
      "inputs": [],
      "name": "shipmentCount",
      "outputs": [
        {
          "internalType": "uint256",
          "name": "",
          "type": "uint256"
        }
      ],
      "stateMutability": "view",
      "type": "function",
      "constant": true
    },
    {
      "inputs": [
        {
          "internalType": "uint256",
          "name": "",
          "type": "uint256"
        }
      ],
      "name": "shipments",
      "outputs": [
        {
          "internalType": "uint256",
          "name": "id",
          "type": "uint256"
        },
        {
          "internalType": "address",
          "name": "farm",
          "type": "address"
        },
        {
          "internalType": "address",
          "name": "currentOwner",
          "type": "address"
        },
        {
          "internalType": "enum AgriSupplyChain.ShipmentStatus",
          "name": "status",
          "type": "uint8"
        }
      ],
      "stateMutability": "view",
      "type": "function",
      "constant": true
    },
    {
      "inputs": [
        {
          "internalType": "address",
          "name": "_newAdmin",
          "type": "address"
        }
      ],
      "name": "addAdmin",
      "outputs": [],
      "stateMutability": "nonpayable",
      "type": "function"
    },
    {
      "inputs": [
        {
          "internalType": "address",
          "name": "_admin",
          "type": "address"
        }
      ],
      "name": "removeAdmin",
      "outputs": [],
      "stateMutability": "nonpayable",
      "type": "function"
    },
    {
      "inputs": [
        {
          "internalType": "bytes32",
          "name": "_role",
          "type": "bytes32"
        },
        {
          "internalType": "address",
          "name": "_account",
          "type": "address"
        }
      ],
      "name": "grantRole",
      "outputs": [],
      "stateMutability": "nonpayable",
      "type": "function"
    },
    {
      "inputs": [
        {
          "internalType": "bytes32",
          "name": "_role",
          "type": "bytes32"
        },
        {
          "internalType": "address",
          "name": "_account",
          "type": "address"
        }
      ],
      "name": "revokeRole",
      "outputs": [],
      "stateMutability": "nonpayable",
      "type": "function"
    },
    {
      "inputs": [
        {
          "internalType": "bytes32",
          "name": "role",
          "type": "bytes32"
        },
        {
          "internalType": "address",
          "name": "account",
          "type": "address"
        }
      ],
      "name": "hasRole",
      "outputs": [
        {
          "internalType": "bool",
          "name": "",
          "type": "bool"
        }
      ],
      "stateMutability": "view",
      "type": "function",
      "constant": true
    },
    {
      "inputs": [
        {
          "internalType": "address",
          "name": "_actorAddress",
          "type": "address"
        },
        {
          "internalType": "string",
          "name": "_name",
          "type": "string"
        },
        {
          "internalType": "string",
          "name": "_role",
          "type": "string"
        }
      ],
      "name": "registerActor",
      "outputs": [],
      "stateMutability": "nonpayable",
      "type": "function"
    },
    {
      "inputs": [
        {
          "internalType": "string",
          "name": "_name",
          "type": "string"
        },
        {
          "internalType": "uint256",
          "name": "_quantity",
          "type": "uint256"
        },
        {
          "internalType": "uint256",
          "name": "_price",
          "type": "uint256"
        },
        {
          "internalType": "string",
          "name": "_originFarm",
          "type": "string"
        }
      ],
      "name": "createProduct",
      "outputs": [],
      "stateMutability": "nonpayable",
      "type": "function"
    },
    {
      "inputs": [
        {
          "internalType": "string",
          "name": "_batchId",
          "type": "string"
        },
        {
          "internalType": "string[]",
          "name": "_names",
          "type": "string[]"
        },
        {
          "internalType": "uint256[]",
          "name": "_quantities",
          "type": "uint256[]"
        },
        {
          "internalType": "uint256[]",
          "name": "_prices",
          "type": "uint256[]"
        },
        {
          "internalType": "string",
          "name": "_originFarm",
          "type": "string"
        }
      ],
      "name": "createProductBatch",
      "outputs": [],
      "stateMutability": "nonpayable",
      "type": "function"
    },
    {
      "inputs": [
        {
          "internalType": "uint256",
          "name": "_productId",
          "type": "uint256"
        },
        {
          "internalType": "uint256",
          "name": "_newPrice",
          "type": "uint256"
        }
      ],
      "name": "updateProductPrice",
      "outputs": [],
      "stateMutability": "nonpayable",
      "type": "function"
    },
    {
      "inputs": [
        {
          "internalType": "uint256",
          "name": "_productId",
          "type": "uint256"
        },
        {
          "internalType": "address",
          "name": "_newOwner",
          "type": "address"
        }
      ],
      "name": "transferProduct",
      "outputs": [],
      "stateMutability": "nonpayable",
      "type": "function"
    },
    {
      "inputs": [
        {
          "internalType": "uint256",
          "name": "_productId",
          "type": "uint256"
        }
      ],
      "name": "processPayment",
      "outputs": [],
      "stateMutability": "payable",
      "type": "function",
      "payable": true
    },
    {
      "inputs": [
        {
          "internalType": "uint256",
          "name": "_productId",
          "type": "uint256"
        },
        {
          "internalType": "enum AgriSupplyChain.ProductStatus",
          "name": "_newStatus",
          "type": "uint8"
        }
      ],
      "name": "updateProductStatus",
      "outputs": [],
      "stateMutability": "nonpayable",
      "type": "function"
    },
    {
      "inputs": [
        {
          "internalType": "uint256",
          "name": "_productId",
          "type": "uint256"
        },
        {
          "internalType": "string",
          "name": "_notes",
          "type": "string"
        },
        {
          "internalType": "bool",
          "name": "_passed",
          "type": "bool"
        }
      ],
      "name": "performQualityCheck",
      "outputs": [],
      "stateMutability": "nonpayable",
      "type": "function"
    },
    {
      "inputs": [
        {
          "internalType": "uint256",
          "name": "_productId",
          "type": "uint256"
        }
      ],
      "name": "getProductDetails",
      "outputs": [
        {
          "internalType": "string",
          "name": "name",
          "type": "string"
        },
        {
          "internalType": "uint256",
          "name": "quantity",
          "type": "uint256"
        },
        {
          "internalType": "uint256",
          "name": "price",
          "type": "uint256"
        },
        {
          "internalType": "address",
          "name": "currentOwner",
          "type": "address"
        },
        {
          "internalType": "enum AgriSupplyChain.ProductStatus",
          "name": "status",
          "type": "uint8"
        },
        {
          "internalType": "string",
          "name": "originFarm",
          "type": "string"
        },
        {
          "internalType": "uint256",
          "name": "harvestDate",
          "type": "uint256"
        },
        {
          "internalType": "uint256",
          "name": "qualityCheckCount",
          "type": "uint256"
        }
      ],
      "stateMutability": "view",
      "type": "function",
      "constant": true
    },
    {
      "inputs": [
        {
          "internalType": "uint256",
          "name": "_productId",
          "type": "uint256"
        },
        {
          "internalType": "uint256",
          "name": "_checkId",
          "type": "uint256"
        }
      ],
      "name": "getQualityCheck",
      "outputs": [
        {
          "internalType": "address",
          "name": "inspector",
          "type": "address"
        },
        {
          "internalType": "uint256",
          "name": "date",
          "type": "uint256"
        },
        {
          "internalType": "string",
          "name": "notes",
          "type": "string"
        },
        {
          "internalType": "bool",
          "name": "passed",
          "type": "bool"
        }
      ],
      "stateMutability": "view",
      "type": "function",
      "constant": true
    },
    {
      "inputs": [
        {
          "internalType": "uint256",
          "name": "_productId",
          "type": "uint256"
        }
      ],
      "name": "getPriceHistory",
      "outputs": [
        {
          "internalType": "uint256[]",
          "name": "timestamps",
          "type": "uint256[]"
        },
        {
          "internalType": "uint256[]",
          "name": "prices",
          "type": "uint256[]"
        }
      ],
      "stateMutability": "view",
      "type": "function",
      "constant": true
    },
    {
      "inputs": [],
      "name": "deposit",
      "outputs": [],
      "stateMutability": "payable",
      "type": "function",
      "payable": true
    },
    {
      "inputs": [
        {
          "internalType": "uint256",
          "name": "_amount",
          "type": "uint256"
        }
      ],
      "name": "withdraw",
      "outputs": [],
      "stateMutability": "nonpayable",
      "type": "function"
    },
    {
      "inputs": [
        {
          "internalType": "uint256",
          "name": "_productId",
          "type": "uint256"
        },
        {
          "internalType": "uint256",
          "name": "_expirationDate",
          "type": "uint256"
        }
      ],
      "name": "setProductExpiration",
      "outputs": [],
      "stateMutability": "nonpayable",
      "type": "function"
    },
    {
      "inputs": [
        {
          "internalType": "uint256",
          "name": "_productId",
          "type": "uint256"
        },
        {
          "internalType": "string",
          "name": "_reason",
          "type": "string"
        }
      ],
      "name": "recallProduct",
      "outputs": [],
      "stateMutability": "nonpayable",
      "type": "function"
    },
    {
      "inputs": [
        {
          "internalType": "uint256",
          "name": "_productId",
          "type": "uint256"
        },
        {
          "internalType": "string",
          "name": "_description",
          "type": "string"
        }
      ],
      "name": "reportIssue",
      "outputs": [],
      "stateMutability": "nonpayable",
      "type": "function"
    },
    {
      "inputs": [
        {
          "internalType": "uint256",
          "name": "_productId",
          "type": "uint256"
        },
        {
          "internalType": "address",
          "name": "_carrier",
          "type": "address"
        },
        {
          "internalType": "uint256",
          "name": "_estimatedArrivalTime",
          "type": "uint256"
        },
        {
          "internalType": "string",
          "name": "_sourceLocation",
          "type": "string"
        },
        {
          "internalType": "string",
          "name": "_destinationLocation",
          "type": "string"
        }
      ],
      "name": "addTransportInfo",
      "outputs": [],
      "stateMutability": "nonpayable",
      "type": "function"
    },
    {
      "inputs": [
        {
          "internalType": "uint256",
          "name": "_productId",
          "type": "uint256"
        },
        {
          "internalType": "uint256",
          "name": "_transportIndex",
          "type": "uint256"
        },
        {
          "internalType": "enum AgriSupplyChain.TransportStatus",
          "name": "_newStatus",
          "type": "uint8"
        }
      ],
      "name": "updateTransportStatus",
      "outputs": [],
      "stateMutability": "nonpayable",
      "type": "function"
    },
    {
      "inputs": [
        {
          "internalType": "uint256",
          "name": "_productId",
          "type": "uint256"
        },
        {
          "internalType": "uint256",
          "name": "_transportIndex",
          "type": "uint256"
        }
      ],
      "name": "getTransportInfo",
      "outputs": [
        {
          "internalType": "address",
          "name": "carrier",
          "type": "address"
        },
        {
          "internalType": "uint256",
          "name": "departureTime",
          "type": "uint256"
        },
        {
          "internalType": "uint256",
          "name": "estimatedArrivalTime",
          "type": "uint256"
        },
        {
          "internalType": "uint256",
          "name": "actualArrivalTime",
          "type": "uint256"
        },
        {
          "internalType": "string",
          "name": "sourceLocation",
          "type": "string"
        },
        {
          "internalType": "string",
          "name": "destinationLocation",
          "type": "string"
        },
        {
          "internalType": "enum AgriSupplyChain.TransportStatus",
          "name": "status",
          "type": "uint8"
        }
      ],
      "stateMutability": "view",
      "type": "function",
      "constant": true
    },
    {
      "inputs": [
        {
          "internalType": "string",
          "name": "_name",
          "type": "string"
        }
      ],
      "name": "registerFarm",
      "outputs": [],
      "stateMutability": "nonpayable",
      "type": "function"
    },
    {
      "inputs": [
        {
          "internalType": "uint256[]",
          "name": "_productIds",
          "type": "uint256[]"
        }
      ],
      "name": "createShipment",
      "outputs": [],
      "stateMutability": "nonpayable",
      "type": "function"
    },
    {
      "inputs": [
        {
          "internalType": "uint256",
          "name": "_shipmentId",
          "type": "uint256"
        },
        {
          "internalType": "enum AgriSupplyChain.ShipmentStatus",
          "name": "_newStatus",
          "type": "uint8"
        }
      ],
      "name": "updateShipmentStatus",
      "outputs": [],
      "stateMutability": "nonpayable",
      "type": "function"
    },
    {
      "inputs": [
        {
          "internalType": "uint256",
          "name": "_shipmentId",
          "type": "uint256"
        },
        {
          "internalType": "address",
          "name": "_newOwner",
          "type": "address"
        }
      ],
      "name": "transferShipment",
      "outputs": [],
      "stateMutability": "nonpayable",
      "type": "function"
    },
    {
      "inputs": [
        {
          "internalType": "uint256",
          "name": "_shipmentId",
          "type": "uint256"
        }
      ],
      "name": "getShipmentDetails",
      "outputs": [
        {
          "internalType": "uint256",
          "name": "id",
          "type": "uint256"
        },
        {
          "internalType": "uint256[]",
          "name": "productIds",
          "type": "uint256[]"
        },
        {
          "internalType": "address",
          "name": "farm",
          "type": "address"
        },
        {
          "internalType": "address",
          "name": "currentOwner",
          "type": "address"
        },
        {
          "internalType": "enum AgriSupplyChain.ShipmentStatus",
          "name": "status",
          "type": "uint8"
        }
      ],
      "stateMutability": "view",
      "type": "function",
      "constant": true
    }
  ],
  "bytecode": "0x60806040523480156200001157600080fd5b50336000818152600360205260409020805460ff1916600117905562000059907f7c6181838a71a779e445600d4c6ecbe16bacf2b3c5bda69c29fada66d1b645d1906200005f565b62000155565b3360009081526003602052604090205460ff166200009a5760405162461bcd60e51b815260040162000091906200011e565b60405180910390fd5b60008281526002602090815260408083206001600160a01b038516845290915290819020805460ff19166001179055517f2ae6a113c0ed5b78a53413ffbb7679881f11145ccfba4fb92e863dfcd5a1d2f390620000fb908490849062000107565b60405180910390a15050565b9182526001600160a01b0316602082015260400190565b60208082526016908201527f43616c6c6572206973206e6f7420616e2061646d696e00000000000000000000604082015260600190565b61409680620001656000396000f3fe6080604052600436106102675760003560e01c806391d1485411610144578063b8fb0171116100b6578063ea153cc41161007a578063ea153cc414610774578063eaa66a3c14610794578063ee710594146107c3578063f0bd87cc146107f3578063f394397014610808578063fd1a98a51461081d57610267565b8063b8fb0171146106f7578063d0e30db014610717578063d547741f1461071f578063e0f6ef871461073f578063e43059e51461075457610267565b80639ce0f973116101085780639ce0f97314610642578063a27686c414610662578063aace20b714610682578063aea1a7bc14610697578063aef50796146106b7578063b3fd853d146106d757610267565b806391d1485414610582578063920e2621146105af57806396250d2d146105cf578063978aef49146105ef5780639c3bddb21461062257610267565b8063421adfa0116101dd578063693d70aa116101a1578063693d70aa146104a357806370480275146104d45780637acc0b20146104f45780637defa9201461052b5780638222bdb21461054b5780638da5cb5b1461056057610267565b8063421adfa0146103eb57806346b2d93c1461041a5780634e20c3621461043a5780634ffd8d801461044f5780636813b53b1461046f57610267565b80632ac08a931161022f5780632ac08a93146103195780632e1a7d4d146103495780632f2ff15d146103695780633173f93e146103895780633a2f8485146103b8578063415d8b97146103cb57610267565b80631490a8df1461026c5780631785f53c1461028e5780632115e7bf146102ae57806327e235e3146102d9578063291dcd4a146102f9575b600080fd5b34801561027857600080fd5b5061028c61028736600461300d565b61084b565b005b34801561029a57600080fd5b5061028c6102a9366004612f17565b61094c565b3480156102ba57600080fd5b506102c36109c5565b6040516102d0919061351f565b60405180910390f35b3480156102e557600080fd5b506102c36102f4366004612f17565b6109e9565b34801561030557600080fd5b5061028c610314366004612fe2565b6109fb565b34801561032557600080fd5b5061033961033436600461317d565b610b2e565b6040516102d09493929190613d8c565b34801561035557600080fd5b5061028c61036436600461317d565b610b68565b34801561037557600080fd5b5061028c610384366004612fe2565b610bec565b34801561039557600080fd5b506103a96103a43660046132e0565b610c86565b6040516102d0939291906133d8565b61028c6103c636600461317d565b610d5c565b3480156103d757600080fd5b5061028c6103e63660046132e0565b610e8d565b3480156103f757600080fd5b5061040b610406366004612f17565b610f18565b6040516102d093929190613573565b34801561042657600080fd5b5061028c610435366004613284565b610fd2565b34801561044657600080fd5b506102c3611165565b34801561045b57600080fd5b5061028c61046a36600461310a565b611189565b34801561047b57600080fd5b5061048f61048a36600461317d565b6111e2565b6040516102d09897969594939291906135de565b3480156104af57600080fd5b506104c36104be36600461317d565b611380565b6040516102d0959493929190613dc2565b3480156104e057600080fd5b5061028c6104ef366004612f17565b611428565b34801561050057600080fd5b5061051461050f36600461317d565b61147b565b6040516102d09b9a99989796959493929190613e2a565b34801561053757600080fd5b5061028c61054636600461321c565b611679565b34801561055757600080fd5b506102c361172d565b34801561056c57600080fd5b50610575611751565b6040516102d091906133c4565b34801561058e57600080fd5b506105a261059d366004612fe2565b611760565b6040516102d091906134dd565b3480156105bb57600080fd5b5061028c6105ca3660046131ea565b61178d565b3480156105db57600080fd5b5061028c6105ea366004613195565b61183d565b3480156105fb57600080fd5b5061060f61060a3660046132e0565b611a7a565b6040516102d09796959493929190613442565b34801561062e57600080fd5b5061028c61063d3660046132e0565b611c66565b34801561064e57600080fd5b5061028c61065d366004613240565b611ca9565b34801561066e57600080fd5b5061028c61067d366004613240565b611d6f565b34801561068e57600080fd5b506102c3611e5b565b3480156106a357600080fd5b5061060f6106b23660046132e0565b611e61565b3480156106c357600080fd5b5061028c6106d2366004612f38565b611fde565b3480156106e357600080fd5b5061028c6106f2366004613301565b61213e565b34801561070357600080fd5b5061028c610712366004612fa8565b6122b9565b61028c612461565b34801561072b57600080fd5b5061028c61073a366004612fe2565b612487565b34801561074b57600080fd5b506102c3612512565b34801561076057600080fd5b5061028c61076f366004612fe2565b612518565b34801561078057600080fd5b5061028c61078f36600461303f565b612552565b3480156107a057600080fd5b506107b46107af366004612f17565b612718565b6040516102d0939291906134e8565b3480156107cf57600080fd5b506107e36107de3660046132e0565b6127cc565b6040516102d09493929190613408565b3480156107ff57600080fd5b506102c36128df565b34801561081457600080fd5b506102c3612903565b34801561082957600080fd5b5061083d61083836600461317d565b612915565b6040516102d09291906134b8565b33600090815260096020526040902060010154600160a01b900460ff161561088e5760405162461bcd60e51b815260040161088590613cbd565b60405180910390fd5b6040805160608101825282815233602080830182905260018385015260009182526009815292902081518051929391926108cb9284920190612cfd565b506020820151600190910180546040938401511515600160a01b0260ff60a01b196001600160a01b039094166001600160a01b031990921691909117929092169190911790555133907f4fc6a528f7b359c561d94f10e2f525923837e25963bd5a9fb44d1b828d3e856990610941908490613560565b60405180910390a250565b3360009081526003602052604090205460ff1661097b5760405162461bcd60e51b815260040161088590613c56565b6001600160a01b0381163314156109a45760405162461bcd60e51b8152600401610885906136d6565b6001600160a01b03166000908152600360205260409020805460ff19169055565b7f2a5f906c256a5d799494fcd066e1f6c077689de1cdb65052a1624de4bace99bf81565b60066020526000908152604090205481565b6000828152600a60205260409020600301546001600160a01b03163314610a345760405162461bcd60e51b81526004016108859061370d565b6001600160a01b03811660009081526004602052604090205460ff16610a6c5760405162461bcd60e51b815260040161088590613970565b6000828152600a602052604081206003810180546001600160a01b0319166001600160a01b038516179055905b6001820154811015610aef57610add826001018281548110610acb57634e487b7160e01b600052603260045260246000fd5b90600052602060002001543385612ab1565b80610ae781613fc3565b915050610a99565b50827f8e16b4336dc88d11f2b19383604580b7fc6349df052bc9232d52ce1a40df6c4d6001604051610b21919061354d565b60405180910390a2505050565b600a6020526000908152604090208054600282015460039092015490916001600160a01b039081169190811690600160a01b900460ff1684565b33600090815260066020526040902054811115610b975760405162461bcd60e51b815260040161088590613823565b3360009081526006602052604081208054839290610bb6908490613f41565b9091555050604051339082156108fc029083906000818181858888f19350505050158015610be8573d6000803e3d6000fd5b5050565b3360009081526003602052604090205460ff16610c1b5760405162461bcd60e51b815260040161088590613c56565b60008281526002602090815260408083206001600160a01b038516845290915290819020805460ff19166001179055517f2ae6a113c0ed5b78a53413ffbb7679881f11145ccfba4fb92e863dfcd5a1d2f390610c7a9084908490613528565b60405180910390a15050565b60076020528160005260406000208181548110610ca257600080fd5b60009182526020909120600390910201805460018201546002830180546001600160a01b03909316955090935090610cd990613f88565b80601f0160208091040260200160405190810160405280929190818152602001828054610d0590613f88565b8015610d525780601f10610d2757610100808354040283529160200191610d52565b820191906000526020600020905b815481529060010190602001808311610d3557829003601f168201915b5050505050905083565b600081815260056020526040902060036004820154600160a01b900460ff166007811115610d9a57634e487b7160e01b600052602160045260246000fd5b14610db75760405162461bcd60e51b815260040161088590613a57565b80600201548160030154610dcb9190613f22565b3414610de95760405162461bcd60e51b815260040161088590613851565b60048101546040516001600160a01b039091169081903480156108fc02916000818181858888f19350505050158015610e26573d6000803e3d6000fd5b50610e32838233612ab1565b610e3d83600461178d565b806001600160a01b0316336001600160a01b03167f0538ab32a957d2b55d0ec70a4029e73fdf19f500832839b1d7bafcfbca2a563034604051610e80919061351f565b60405180910390a3505050565b6000828152600560205260409020600401546001600160a01b03163314610ec65760405162461bcd60e51b815260040161088590613759565b60008281526005602052604090819020600b018290555182907f62fc4c3d69b8384575396d0d543e309417fbebc641f127f1f850254c55c2a86090610f0c90849061351f565b60405180910390a25050565b600960205260009081526040902080548190610f3390613f88565b80601f0160208091040260200160405190810160405280929190818152602001828054610f5f90613f88565b8015610fac5780601f10610f8157610100808354040283529160200191610fac565b820191906000526020600020905b815481529060010190602001808311610f8f57829003601f168201915b505050600190930154919250506001600160a01b0381169060ff600160a01b9091041683565b7f66108bb9ee7f804cb1c563794e51989792a366e4b648e4b2b9189d9587e1880d610ffd8133611760565b6110195760405162461bcd60e51b815260040161088590613a8e565b6000848152600560205260408120600881018054919261103883613fc3565b90915550506040805160808101825233815242602080830191825282840188815287151560608501526008860154600090815260078701835294909420835181546001600160a01b0319166001600160a01b039091161781559151600183015592518051929391926110b09260028501920190612cfd565b50606091909101516003909101805460ff1916911515919091179055604051339086907f7865f484a3967e559782b22c15fbffe922898c62b9040c84656ec9279ea71a74906111009087906134dd565b60405180910390a38261115e5760048101805460ff60a01b1916600760a01b17905560405185907fb8a3401adfc11253c3aff18e4b48103cec45c852b9afc487c23f32e26746242c906111559060079061353f565b60405180910390a25b5050505050565b7f66108bb9ee7f804cb1c563794e51989792a366e4b648e4b2b9189d9587e1880d81565b6000805160206140418339815191526111a28133611760565b6111be5760405162461bcd60e51b815260040161088590613a8e565b6111da8585858560405180602001604052806000815250612b86565b505050505050565b606060008060008060606000806000600560008b8152602001908152602001600020905080600101816002015482600301548360040160009054906101000a90046001600160a01b03168460040160149054906101000a900460ff16856005018660060154876008015487805461125890613f88565b80601f016020809104026020016040519081016040528092919081815260200182805461128490613f88565b80156112d15780601f106112a6576101008083540402835291602001916112d1565b820191906000526020600020905b8154815290600101906020018083116112b457829003601f168201915b505050505097508280546112e490613f88565b80601f016020809104026020016040519081016040528092919081815260200182805461131090613f88565b801561135d5780601f106113325761010080835404028352916020019161135d565b820191906000526020600020905b81548152906001019060200180831161134057829003601f168201915b505050505092509850985098509850985098509850985050919395975091939597565b6000818152600a60209081526040808320805460028201546003830154600184018054865181890281018901909752808752606097899788978897909690956001600160a01b039182169491811693600160a01b90910460ff169291869183018282801561140d57602002820191906000526020600020905b8154815260200190600101908083116113f9575b50505050509350955095509550955095505091939590929450565b3360009081526003602052604090205460ff166114575760405162461bcd60e51b815260040161088590613c56565b6001600160a01b03166000908152600360205260409020805460ff19166001179055565b6005602052600090815260409020805460018201805491929161149d90613f88565b80601f01602080910402602001604051908101604052809291908181526020018280546114c990613f88565b80156115165780601f106114eb57610100808354040283529160200191611516565b820191906000526020600020905b8154815290600101906020018083116114f957829003601f168201915b50505050600283015460038401546004850154600586018054959693959294506001600160a01b03821693600160a01b90920460ff169261155690613f88565b80601f016020809104026020016040519081016040528092919081815260200182805461158290613f88565b80156115cf5780601f106115a4576101008083540402835291602001916115cf565b820191906000526020600020905b8154815290600101906020018083116115b257829003601f168201915b50505050509080600601549080600801549080600a0180546115f090613f88565b80601f016020809104026020016040519081016040528092919081815260200182805461161c90613f88565b80156116695780601f1061163e57610100808354040283529160200191611669565b820191906000526020600020905b81548152906001019060200180831161164c57829003601f168201915b50505050509080600b015490508b565b6000828152600a60205260409020600301546001600160a01b031633146116b25760405162461bcd60e51b815260040161088590613d3b565b6000828152600a6020526040902060039081018054839260ff60a01b1990911690600160a01b9084908111156116f857634e487b7160e01b600052602160045260246000fd5b0217905550817f8e16b4336dc88d11f2b19383604580b7fc6349df052bc9232d52ce1a40df6c4d82604051610f0c919061354d565b7fe61decff6e4a5c6b5a3d3cbd28f882e595173563b49353ce5f31dba2de7f05ee81565b6000546001600160a01b031681565b60008281526002602090815260408083206001600160a01b038516845290915290205460ff165b92915050565b6000828152600560205260409020600401546001600160a01b031633146117c65760405162461bcd60e51b815260040161088590613c06565b6000828152600560205260409020600401805482919060ff60a01b1916600160a01b83600781111561180857634e487b7160e01b600052602160045260246000fd5b0217905550817fb8a3401adfc11253c3aff18e4b48103cec45c852b9afc487c23f32e26746242c82604051610f0c919061353f565b6118677ffbd454f36a7e1a388bd6fc3ab10d434aa4578f811acbbcf33afb1c697486313c33611760565b8061189757506118977f2a5f906c256a5d799494fcd066e1f6c077689de1cdb65052a1624de4bace99bf33611760565b6118b35760405162461bcd60e51b8152600401610885906139b4565b6000858152600560205260409020600401546001600160a01b031633146118ec5760405162461bcd60e51b8152600401610885906137da565b60006040518060e00160405280866001600160a01b03168152602001428152602001858152602001600081526020018481526020018381526020016000600381111561194857634e487b7160e01b600052602160045260246000fd5b9052600087815260086020908152604080832080546001808201835591855293839020855160079095020180546001600160a01b0319166001600160a01b0390951694909417845584830151908401558301516002830155606083015160038301556080830151805193945084936119c69260048501920190612cfd565b5060a082015180516119e2916005840191602090910190612cfd565b5060c082015160068201805460ff19166001836003811115611a1457634e487b7160e01b600052602160045260246000fd5b0217905550505060008681526008602052604090205486907fea3656b1754d9c89243f4a5c007304b74b973124d6b31656d26e83032e21f28e90611a5a90600190613f41565b6000604051611a6a929190613e0d565b60405180910390a2505050505050565b600082815260086020526040812054819081908190606090819083908810611ab45760405162461bcd60e51b815260040161088590613b86565b600089815260086020526040812080548a908110611ae257634e487b7160e01b600052603260045260246000fd5b906000526020600020906007020190508060000160009054906101000a90046001600160a01b031681600101548260020154836003015484600401856005018660060160009054906101000a900460ff16828054611b3f90613f88565b80601f0160208091040260200160405190810160405280929190818152602001828054611b6b90613f88565b8015611bb85780601f10611b8d57610100808354040283529160200191611bb8565b820191906000526020600020905b815481529060010190602001808311611b9b57829003601f168201915b50505050509250818054611bcb90613f88565b80601f0160208091040260200160405190810160405280929190818152602001828054611bf790613f88565b8015611c445780601f10611c1957610100808354040283529160200191611c44565b820191906000526020600020905b815481529060010190602001808311611c2757829003601f168201915b5050505050915097509750975097509750975097505092959891949750929550565b6000828152600560205260409020600401546001600160a01b03163314611c9f5760405162461bcd60e51b815260040161088590613cf4565b610be88282612c7b565b611cc160008051602061404183398151915233611760565b80611cf15750611cf17fe61decff6e4a5c6b5a3d3cbd28f882e595173563b49353ce5f31dba2de7f05ee33611760565b611d0d5760405162461bcd60e51b81526004016108859061391c565b60008281526005602052604090819020600401805460ff60a01b1916600760a01b17905551339083907fc836b58f1d2b092e3af919aae9a0607bb0c4fe552aa37d0d7ed26885488b739990611d63908590613560565b60405180910390a35050565b3360009081526004602052604090205460ff16611d9e5760405162461bcd60e51b815260040161088590613b3b565b600082815260076020908152604080832081516060810183523381524281850190815292810186815282546001808201855593875295859020825160039097020180546001600160a01b0319166001600160a01b0390971696909617865592519185019190915590518051919392611e1e92600285019290910190612cfd565b505050336001600160a01b0316827fab22a6a33c72f8714f98ae96ca224ef00a13b534cab6fb2c7e407058ab2e93b183604051611d639190613560565b600b5481565b60086020528160005260406000208181548110611e7d57600080fd5b6000918252602090912060079091020180546001820154600283015460038401546004850180546001600160a01b03909516975092955090939092909190611ec490613f88565b80601f0160208091040260200160405190810160405280929190818152602001828054611ef090613f88565b8015611f3d5780601f10611f1257610100808354040283529160200191611f3d565b820191906000526020600020905b815481529060010190602001808311611f2057829003601f168201915b505050505090806005018054611f5290613f88565b80601f0160208091040260200160405190810160405280929190818152602001828054611f7e90613f88565b8015611fcb5780601f10611fa057610100808354040283529160200191611fcb565b820191906000526020600020905b815481529060010190602001808311611fae57829003601f168201915b5050506006909301549192505060ff1687565b3360009081526003602052604090205460ff1661200d5760405162461bcd60e51b815260040161088590613c56565b6001600160a01b03831660009081526004602052604090205460ff16156120465760405162461bcd60e51b815260040161088590613c86565b60408051606081018252600180825260208083018681528385018690526001600160a01b038816600090815260048352949094208351815460ff1916901515178155935180519394936120a0938501929190910190612cfd565b50604082015180516120bc916002840191602090910190612cfd565b509050506000816040516020016120d391906133a8565b6040516020818303038152906040528051906020012090506120f58185610bec565b836001600160a01b03167f1d34bb903252bf77da396eadf6a332e7302eec0eca3687f9c2142bbd69e831d184846040516121309291906135b9565b60405180910390a250505050565b6121687ffbd454f36a7e1a388bd6fc3ab10d434aa4578f811acbbcf33afb1c697486313c33611760565b8061219857506121987f2a5f906c256a5d799494fcd066e1f6c077689de1cdb65052a1624de4bace99bf33611760565b6121b45760405162461bcd60e51b815260040161088590613ad4565b60008381526008602052604090205482106121e15760405162461bcd60e51b815260040161088590613b86565b600083815260086020526040812080548490811061220f57634e487b7160e01b600052603260045260246000fd5b90600052602060002090600702019050818160060160006101000a81548160ff0219169083600381111561225357634e487b7160e01b600052602160045260246000fd5b0217905550600282600381111561227a57634e487b7160e01b600052602160045260246000fd5b1415612287574260038201555b837fea3656b1754d9c89243f4a5c007304b74b973124d6b31656d26e83032e21f28e8484604051612130929190613e0d565b33600090815260096020526040902060010154600160a01b900460ff166122f25760405162461bcd60e51b815260040161088590613888565b61230a60008051602061404183398151915233611760565b6123265760405162461bcd60e51b8152600401610885906138d4565b600b805490600061233683613fc3565b9091555050600b546000818152600a60209081526040909120918255825161236691600184019190850190612d81565b506002810180546001600160a01b03199081163390811790925560038301805460ff60a01b19921690921716905560005b825181101561242457336001600160a01b0316600560008584815181106123ce57634e487b7160e01b600052603260045260246000fd5b6020908102919091018101518252810191909152604001600020600401546001600160a01b0316146124125760405162461bcd60e51b815260040161088590613bbd565b8061241c81613fc3565b915050612397565b50336001600160a01b0316600b547fec560a021d8927934c76d5d1538c749246f9dfc72f4ac1215ad99d51f19c191684604051611d6391906134a5565b3360009081526006602052604081208054349290612480908490613f0a565b9091555050565b3360009081526003602052604090205460ff166124b65760405162461bcd60e51b815260040161088590613c56565b60008281526002602090815260408083206001600160a01b038516845290915290819020805460ff19169055517f155aaafb6329a2098580462df33ec4b7441b19729b9601c5fc17ae1cf99a8a5290610c7a9084908490613528565b60015481565b3360009081526004602052604090205460ff166125475760405162461bcd60e51b8152600401610885906137a3565b610be8823383612ab1565b60008051602061404183398151915261256b8133611760565b6125875760405162461bcd60e51b815260040161088590613a8e565b83518551148015612599575082518451145b6125b55760405162461bcd60e51b815260040161088590613a11565b600085516001600160401b038111156125de57634e487b7160e01b600052604160045260246000fd5b604051908082528060200260200182016040528015612607578160200160208202803683370190505b50905060005b86518110156126d55761269887828151811061263957634e487b7160e01b600052603260045260246000fd5b602002602001015187838151811061266157634e487b7160e01b600052603260045260246000fd5b602002602001015187848151811061268957634e487b7160e01b600052603260045260246000fd5b6020026020010151878c612b86565b8282815181106126b857634e487b7160e01b600052603260045260246000fd5b6020908102919091010152806126cd81613fc3565b91505061260d565b507f0a3b22a8487549f486a9a879c4efa1dedbff51d806c0974052a3cfcf777c26a787826040516127079291906135a6565b60405180910390a150505050505050565b6004602052600090815260409020805460018201805460ff909216929161273e90613f88565b80601f016020809104026020016040519081016040528092919081815260200182805461276a90613f88565b80156127b75780601f1061278c576101008083540402835291602001916127b7565b820191906000526020600020905b81548152906001019060200180831161279a57829003601f168201915b505050505090806002018054610cd990613f88565b60008281526005602090815260408083208484526007018252808320815160808101835281546001600160a01b0316815260018201549381019390935260028101805485946060948694859492939092918401919061282a90613f88565b80601f016020809104026020016040519081016040528092919081815260200182805461285690613f88565b80156128a35780601f10612878576101008083540402835291602001916128a3565b820191906000526020600020905b81548152906001019060200180831161288657829003601f168201915b50505091835250506003919091015460ff1615156020918201528151908201516040830151606090930151919a90995091975095509350505050565b7ffbd454f36a7e1a388bd6fc3ab10d434aa4578f811acbbcf33afb1c697486313c81565b60008051602061404183398151915281565b600081815260056020526040902060090180546060918291806001600160401b0381111561295357634e487b7160e01b600052604160045260246000fd5b60405190808252806020026020018201604052801561297c578160200160208202803683370190505b509350806001600160401b038111156129a557634e487b7160e01b600052604160045260246000fd5b6040519080825280602002602001820160405280156129ce578160200160208202803683370190505b50925060005b81811015612aa9578281815481106129fc57634e487b7160e01b600052603260045260246000fd5b906000526020600020906002020160000154858281518110612a2e57634e487b7160e01b600052603260045260246000fd5b602002602001018181525050828181548110612a5a57634e487b7160e01b600052603260045260246000fd5b906000526020600020906002020160010154848281518110612a8c57634e487b7160e01b600052603260045260246000fd5b602090810291909101015280612aa181613fc3565b9150506129d4565b505050915091565b6000838152600560205260409020600401546001600160a01b03838116911614612aed5760405162461bcd60e51b815260040161088590613648565b6001600160a01b03811660009081526004602052604090205460ff16612b255760405162461bcd60e51b815260040161088590613693565b60008381526005602052604080822060040180546001600160a01b0319166001600160a01b03858116918217909255915191929085169186917fcef86d37ba3dc1d682967cde44d8050488734bf53166725b220b4d2e515e9e9391a4505050565b6001805460009182612b9783613fc3565b909155505060018054600081815260056020908152604090912091825588519192612bc892908401918a0190612cfd565b50600281018690556004810180546001600160a01b031916331760ff60a01b191690558351612c009060058301906020870190612cfd565b504260068201558251612c1c90600a8301906020860190612cfd565b50612c2960015486612c7b565b336001600160a01b03166001547faf6ffb6277511513e7d579327cc1fc57f0266df2fb11a60b13487b8c9cd2c38889604051612c659190613560565b60405180910390a3505060015495945050505050565b600082815260056020908152604080832060038101859055815180830183524281528084018681526009830180546001818101835591885295909620915160029095029091019384555192909301919091555183907f945c1c4e99aa89f648fbfe3df471b916f719e16d960fcec0737d4d56bd69683890610b2190859061351f565b828054612d0990613f88565b90600052602060002090601f016020900481019282612d2b5760008555612d71565b82601f10612d4457805160ff1916838001178555612d71565b82800160010185558215612d71579182015b82811115612d71578251825591602001919060010190612d56565b50612d7d929150612dbb565b5090565b828054828255906000526020600020908101928215612d715791602002820182811115612d71578251825591602001919060010190612d56565b5b80821115612d7d5760008155600101612dbc565b80356001600160a01b0381168114612de757600080fd5b919050565b600082601f830112612dfc578081fd5b81356020612e11612e0c83613ee7565b613ebe565b82815281810190858301855b85811015612e4657612e34898684358b0101612ead565b84529284019290840190600101612e1d565b5090979650505050505050565b600082601f830112612e63578081fd5b81356020612e73612e0c83613ee7565b8281528181019085830183850287018401881015612e8f578586fd5b855b85811015612e4657813584529284019290840190600101612e91565b600082601f830112612ebd578081fd5b81356001600160401b03811115612ed657612ed661400a565b612ee9601f8201601f1916602001613ebe565b818152846020838601011115612efd578283fd5b816020850160208301379081016020019190915292915050565b600060208284031215612f28578081fd5b612f3182612dd0565b9392505050565b600080600060608486031215612f4c578182fd5b612f5584612dd0565b925060208401356001600160401b0380821115612f70578384fd5b612f7c87838801612ead565b93506040860135915080821115612f91578283fd5b50612f9e86828701612ead565b9150509250925092565b600060208284031215612fb9578081fd5b81356001600160401b03811115612fce578182fd5b612fda84828501612e53565b949350505050565b60008060408385031215612ff4578182fd5b8235915061300460208401612dd0565b90509250929050565b60006020828403121561301e578081fd5b81356001600160401b03811115613033578182fd5b612fda84828501612ead565b600080600080600060a08688031215613056578081fd5b85356001600160401b038082111561306c578283fd5b61307889838a01612ead565b9650602088013591508082111561308d578283fd5b61309989838a01612dec565b955060408801359150808211156130ae578283fd5b6130ba89838a01612e53565b945060608801359150808211156130cf578283fd5b6130db89838a01612e53565b935060808801359150808211156130f0578283fd5b506130fd88828901612ead565b9150509295509295909350565b6000806000806080858703121561311f578384fd5b84356001600160401b0380821115613135578586fd5b61314188838901612ead565b955060208701359450604087013593506060870135915080821115613164578283fd5b5061317187828801612ead565b91505092959194509250565b60006020828403121561318e578081fd5b5035919050565b600080600080600060a086880312156131ac578283fd5b853594506131bc60208701612dd0565b93506040860135925060608601356001600160401b03808211156131de578283fd5b6130db89838a01612ead565b600080604083850312156131fc578182fd5b82359150602083013560088110613211578182fd5b809150509250929050565b6000806040838503121561322e578182fd5b82359150602083013561321181614033565b60008060408385031215613252578182fd5b8235915060208301356001600160401b0381111561326e578182fd5b61327a85828601612ead565b9150509250929050565b600080600060608486031215613298578081fd5b8335925060208401356001600160401b038111156132b4578182fd5b6132c086828701612ead565b925050604084013580151581146132d5578182fd5b809150509250925092565b600080604083850312156132f2578182fd5b50508035926020909101359150565b600080600060608486031215613315578081fd5b833592506020840135915060408401356132d581614033565b6000815180845260208085019450808401835b8381101561335d57815187529582019590820190600101613341565b509495945050505050565b6008811061337857613378613ff4565b9052565b60008151808452613394816020860160208601613f58565b601f01601f19169290920160200192915050565b600082516133ba818460208701613f58565b9190910192915050565b6001600160a01b0391909116815260200190565b600060018060a01b0385168252836020830152606060408301526133ff606083018461337c565b95945050505050565b600060018060a01b03861682528460208301526080604083015261342f608083018561337c565b9050821515606083015295945050505050565b600060018060a01b038916825287602083015286604083015285606083015260e0608083015261347560e083018661337c565b82810360a0840152613487818661337c565b91505061349383614020565b8260c083015298975050505050505050565b600060208252612f31602083018461332e565b6000604082526134cb604083018561332e565b82810360208401526133ff818561332e565b901515815260200190565b6000841515825260606020830152613503606083018561337c565b8281036040840152613515818561337c565b9695505050505050565b90815260200190565b9182526001600160a01b0316602082015260400190565b602081016117878284613368565b6020810161355a83614020565b91905290565b600060208252612f31602083018461337c565b600060608252613586606083018661337c565b6001600160a01b0394909416602083015250901515604090910152919050565b6000604082526134cb604083018561337c565b6000604082526135cc604083018561337c565b82810360208401526133ff818561337c565b60006101008083526135f28184018c61337c565b602084018b9052604084018a90526001600160a01b0389166060850152905061361e6080840188613368565b82810360a0840152613630818761337c565b60c0840195909552505060e001529695505050505050565b6020808252602b908201527f4f6e6c792063757272656e74206f776e65722063616e207472616e736665722060408201526a1d1a19481c1c9bd91d58dd60aa1b606082015260800190565b60208082526023908201527f526563697069656e74206973206e6f74206120726567697374657265642061636040820152623a37b960e91b606082015260800190565b6020808252601b908201527f43616e6e6f742072656d6f76652073656c662061732061646d696e0000000000604082015260600190565b6020808252602c908201527f4f6e6c792063757272656e74206f776e65722063616e207472616e736665722060408201526b1d1a19481cda1a5c1b595b9d60a21b606082015260800190565b6020808252602a908201527f4f6e6c792063757272656e74206f776e65722063616e207365742065787069726040820152696174696f6e206461746560b01b606082015260800190565b60208082526017908201527f4163746f72206973206e6f742072656769737465726564000000000000000000604082015260600190565b60208082526029908201527f4f6e6c792063757272656e74206f776e65722063616e20616464207472616e73604082015268706f727420696e666f60b81b606082015260800190565b602080825260149082015273496e73756666696369656e742062616c616e636560601b604082015260600190565b60208082526018908201527f496e636f7272656374207061796d656e7420616d6f756e740000000000000000604082015260600190565b6020808252602c908201527f4d75737420626520612072656769737465726564206661726d20746f2063726560408201526b185d19481cda1a5c1b595b9d60a21b606082015260800190565b60208082526028908201527f4d7573742068617665206661726d657220726f6c6520746f20637265617465206040820152671cda1a5c1b595b9d60c21b606082015260800190565b60208082526034908201527f4d7573742068617665206661726d6572206f722070726f636573736f7220726f6040820152731b19481d1bc81c9958d85b1b081c1c9bd91d58dd60621b606082015260800190565b60208082526024908201527f526563697069656e74206d75737420626520612072656769737465726564206160408201526331ba37b960e11b606082015260800190565b6020808252603c908201527f4d7573742068617665206469737472696275746f72206f722072657461696c6560408201527f7220726f6c6520746f20616464207472616e73706f727420696e666f00000000606082015260800190565b60208082526026908201527f496e70757420617272617973206d7573742068617665207468652073616d65206040820152650d8cadccee8d60d31b606082015260800190565b60208082526017908201527f50726f64756374206973206e6f7420666f722073616c65000000000000000000604082015260600190565b60208082526026908201527f43616c6c657220646f6573206e6f7420686176652074686520726571756972656040820152656420726f6c6560d01b606082015260800190565b60208082526041908201527f4d7573742068617665206469737472696275746f72206f722072657461696c6560408201527f7220726f6c6520746f20757064617465207472616e73706f72742073746174756060820152607360f81b608082015260a00190565b6020808252602b908201527f4d75737420626520612072656769737465726564206163746f7220746f20726560408201526a706f72742069737375657360a81b606082015260800190565b60208082526017908201527f496e76616c6964207472616e73706f727420696e646578000000000000000000604082015260600190565b60208082526029908201527f596f75206d757374206f776e20616c6c2070726f647563747320696e20746865604082015268081cda1a5c1b595b9d60ba1b606082015260800190565b60208082526030908201527f4f6e6c792063757272656e74206f776e65722063616e2075706461746520746860408201526f652070726f647563742073746174757360801b606082015260800190565b60208082526016908201527521b0b63632b91034b9903737ba1030b71030b236b4b760511b604082015260600190565b60208082526018908201527f4163746f7220616c726561647920726567697374657265640000000000000000604082015260600190565b60208082526017908201527f4661726d20616c72656164792072656769737465726564000000000000000000604082015260600190565b60208082526027908201527f4f6e6c792063757272656e74206f776e65722063616e207570646174652074686040820152666520707269636560c81b606082015260800190565b60208082526031908201527f4f6e6c792063757272656e74206f776e65722063616e207570646174652074686040820152706520736869706d656e742073746174757360781b606082015260800190565b8481526001600160a01b0384811660208301528316604082015260808101613db383614020565b82606083015295945050505050565b600086825260a06020830152613ddb60a083018761332e565b6001600160a01b038681166040850152851660608401529050613dfd83614020565b8260808301529695505050505050565b82815260408101613e1d83614020565b8260208301529392505050565b60006101608d8352806020840152613e448184018e61337c565b604084018d9052606084018c90526001600160a01b038b1660808501529050613e7060a084018a613368565b82810360c0840152613e82818961337c565b90508660e084015285610100840152828103610120840152613ea4818661337c565b915050826101408301529c9b505050505050505050505050565b6040518181016001600160401b0381118282101715613edf57613edf61400a565b604052919050565b60006001600160401b03821115613f0057613f0061400a565b5060209081020190565b60008219821115613f1d57613f1d613fde565b500190565b6000816000190483118215151615613f3c57613f3c613fde565b500290565b600082821015613f5357613f53613fde565b500390565b60005b83811015613f73578181015183820152602001613f5b565b83811115613f82576000848401525b50505050565b600281046001821680613f9c57607f821691505b60208210811415613fbd57634e487b7160e01b600052602260045260246000fd5b50919050565b6000600019821415613fd757613fd7613fde565b5060010190565b634e487b7160e01b600052601160045260246000fd5b634e487b7160e01b600052602160045260246000fd5b634e487b7160e01b600052604160045260246000fd5b6004811061403057614030613ff4565b50565b6004811061403057600080fdfe7c6181838a71a779e445600d4c6ecbe16bacf2b3c5bda69c29fada66d1b645d1a26469706673582212207f200b919b42fcf6e378e00936e32cff49f6a424a5d3642cc9f64900f7929c8764736f6c63430008000033",
  "immutableReferences": {},
  "source": "// SPDX-License-Identifier: MIT\npragma solidity ^0.8.0;\n\ncontract AgriSupplyChain {\n    address public owner;\n    uint256 public productCount;\n\n    // Improved role management\n    mapping(bytes32 => mapping(address => bool)) private roles;\n    mapping(address => bool) private admins;\n\n    // New price history tracking\n    struct PriceHistory {\n        uint256 timestamp;\n        uint256 price;\n    }\n\n    struct Actor {\n        bool isRegistered;\n        string name;\n        string role;\n    }\n\n    struct Product {\n        uint256 id;\n        string name;\n        uint256 quantity;\n        uint256 price;\n        address currentOwner;\n        ProductStatus status;\n        string originFarm;\n        uint256 harvestDate;\n        mapping(uint256 => QualityCheck) qualityChecks;\n        uint256 qualityCheckCount;\n        PriceHistory[] priceHistory;\n        string batchId; // New field for batch tracking\n        uint256 expirationDate;\n    }\n\n    struct QualityCheck {\n        address inspector;\n        uint256 date;\n        string notes;\n        bool passed;\n    }\n\n    enum ProductStatus { Created, Processed, Packaged, ForSale, Sold, Shipped, Received, Rejected }\n\n    mapping(address => Actor) public actors;\n    mapping(uint256 => Product) public products;\n    mapping(address => uint256) public balances;\n\n    event ActorRegistered(address indexed actorAddress, string name, string role);\n    event ProductCreated(uint256 indexed productId, string name, address indexed farmer);\n    event ProductTransferred(uint256 indexed productId, address indexed from, address indexed to);\n    event ProductStatusUpdated(uint256 indexed productId, ProductStatus status);\n    event QualityCheckPerformed(uint256 indexed productId, address indexed inspector, bool passed);\n    event PaymentProcessed(address indexed from, address indexed to, uint256 amount);\n\n    // New events\n    event RoleGranted(bytes32 role, address account);\n    event RoleRevoked(bytes32 role, address account);\n    event PriceUpdated(uint256 indexed productId, uint256 newPrice);\n    event BatchCreated(string batchId, uint256[] productIds);\n    event TransportInfoUpdated(uint256 indexed productId, uint256 transportIndex, TransportStatus status);\n\n    // New role constants\n    bytes32 public constant FARMER_ROLE = keccak256(\"FARMER_ROLE\");\n    bytes32 public constant PROCESSOR_ROLE = keccak256(\"PROCESSOR_ROLE\");\n    bytes32 public constant DISTRIBUTOR_ROLE = keccak256(\"DISTRIBUTOR_ROLE\");\n    bytes32 public constant RETAILER_ROLE = keccak256(\"RETAILER_ROLE\");\n    bytes32 public constant QUALITY_INSPECTOR_ROLE = keccak256(\"QUALITY_INSPECTOR_ROLE\");\n\n    modifier onlyAdmin() {\n        require(admins[msg.sender], \"Caller is not an admin\");\n        _;\n    }\n\n    modifier onlyRole(bytes32 role) {\n        require(hasRole(role, msg.sender), \"Caller does not have the required role\");\n        _;\n    }\n\n    constructor() {\n        admins[msg.sender] = true;\n        grantRole(FARMER_ROLE, msg.sender);\n    }\n\n    function addAdmin(address _newAdmin) public onlyAdmin {\n        admins[_newAdmin] = true;\n    }\n\n    function removeAdmin(address _admin) public onlyAdmin {\n        require(_admin != msg.sender, \"Cannot remove self as admin\");\n        admins[_admin] = false;\n    }\n\n    function grantRole(bytes32 _role, address _account) public onlyAdmin {\n        roles[_role][_account] = true;\n        emit RoleGranted(_role, _account);\n    }\n\n    function revokeRole(bytes32 _role, address _account) public onlyAdmin {\n        roles[_role][_account] = false;\n        emit RoleRevoked(_role, _account);\n    }\n\n    function hasRole(bytes32 role, address account) public view returns (bool) {\n        return roles[role][account];\n    }\n\n    // Modified function to use new role system\n    function registerActor(address _actorAddress, string memory _name, string memory _role) public onlyAdmin {\n        require(!actors[_actorAddress].isRegistered, \"Actor already registered\");\n        actors[_actorAddress] = Actor(true, _name, _role);\n        \n        bytes32 roleHash = keccak256(abi.encodePacked(_role));\n        grantRole(roleHash, _actorAddress);\n        \n        emit ActorRegistered(_actorAddress, _name, _role);\n    }\n\n    // New internal function for price updates\n    function _updatePrice(uint256 _productId, uint256 _newPrice) internal {\n        Product storage product = products[_productId];\n        product.price = _newPrice;\n        product.priceHistory.push(PriceHistory(block.timestamp, _newPrice));\n        emit PriceUpdated(_productId, _newPrice);\n    }\n\n    // New internal function for product creation\n    function _createProduct(string memory _name, uint256 _quantity, uint256 _price, string memory _originFarm, string memory _batchId) internal returns (uint256) {\n        productCount++;\n        Product storage newProduct = products[productCount];\n        newProduct.id = productCount;\n        newProduct.name = _name;\n        newProduct.quantity = _quantity;\n        newProduct.currentOwner = msg.sender;\n        newProduct.status = ProductStatus.Created;\n        newProduct.originFarm = _originFarm;\n        newProduct.harvestDate = block.timestamp;\n        newProduct.batchId = _batchId;\n\n        _updatePrice(productCount, _price);\n\n        emit ProductCreated(productCount, _name, msg.sender);\n        return productCount;\n    }\n\n    // Refactored createProduct function\n    function createProduct(string memory _name, uint256 _quantity, uint256 _price, string memory _originFarm) public onlyRole(FARMER_ROLE) {\n        _createProduct(_name, _quantity, _price, _originFarm, \"\");\n    }\n\n    // Refactored createProductBatch function (replaces both createBatchProducts and createProductBatch)\n    function createProductBatch(string memory _batchId, string[] memory _names, uint256[] memory _quantities, uint256[] memory _prices, string memory _originFarm) public onlyRole(FARMER_ROLE) {\n        require(_names.length == _quantities.length && _quantities.length == _prices.length, \"Input arrays must have the same length\");\n        \n        uint256[] memory productIds = new uint256[](_names.length);\n        \n        for (uint i = 0; i < _names.length; i++) {\n            productIds[i] = _createProduct(_names[i], _quantities[i], _prices[i], _originFarm, _batchId);\n        }\n        \n        emit BatchCreated(_batchId, productIds);\n    }\n\n    // Refactored updateProductPrice function\n    function updateProductPrice(uint256 _productId, uint256 _newPrice) public {\n        require(products[_productId].currentOwner == msg.sender, \"Only current owner can update the price\");\n        _updatePrice(_productId, _newPrice);\n    }\n\n    // New internal function for product transfer\n    function _transferProduct(uint256 _productId, address _from, address _to) internal {\n        require(products[_productId].currentOwner == _from, \"Only current owner can transfer the product\");\n        require(actors[_to].isRegistered, \"Recipient is not a registered actor\");\n\n        products[_productId].currentOwner = _to;\n        emit ProductTransferred(_productId, _from, _to);\n    }\n\n    // Refactored transferProduct function\n    function transferProduct(uint256 _productId, address _newOwner) public {\n        require(actors[msg.sender].isRegistered, \"Actor is not registered\");\n        _transferProduct(_productId, msg.sender, _newOwner);\n    }\n\n    // Refactored processPayment function\n    function processPayment(uint256 _productId) public payable {\n        Product storage product = products[_productId];\n        require(product.status == ProductStatus.ForSale, \"Product is not for sale\");\n        require(msg.value == product.price * product.quantity, \"Incorrect payment amount\");\n\n        address payable seller = payable(product.currentOwner);\n        seller.transfer(msg.value);\n\n        _transferProduct(_productId, seller, msg.sender);\n        updateProductStatus(_productId, ProductStatus.Sold);\n\n        emit PaymentProcessed(msg.sender, seller, msg.value);\n    }\n\n    function updateProductStatus(uint256 _productId, ProductStatus _newStatus) public {\n        require(products[_productId].currentOwner == msg.sender, \"Only current owner can update the product status\");\n        products[_productId].status = _newStatus;\n        emit ProductStatusUpdated(_productId, _newStatus);\n    }\n\n    // Modified function to use new role system\n    function performQualityCheck(uint256 _productId, string memory _notes, bool _passed) public onlyRole(QUALITY_INSPECTOR_ROLE) {\n        Product storage product = products[_productId];\n        product.qualityCheckCount++;\n        product.qualityChecks[product.qualityCheckCount] = QualityCheck(msg.sender, block.timestamp, _notes, _passed);\n        emit QualityCheckPerformed(_productId, msg.sender, _passed);\n\n        if (!_passed) {\n            product.status = ProductStatus.Rejected;\n            emit ProductStatusUpdated(_productId, ProductStatus.Rejected);\n        }\n    }\n\n    function getProductDetails(uint256 _productId) public view returns (\n        string memory name,\n        uint256 quantity,\n        uint256 price,\n        address currentOwner,\n        ProductStatus status,\n        string memory originFarm,\n        uint256 harvestDate,\n        uint256 qualityCheckCount\n    ) {\n        Product storage product = products[_productId];\n        return (\n            product.name,\n            product.quantity,\n            product.price,\n            product.currentOwner,\n            product.status,\n            product.originFarm,\n            product.harvestDate,\n            product.qualityCheckCount\n        );\n    }\n\n    function getQualityCheck(uint256 _productId, uint256 _checkId) public view returns (\n        address inspector,\n        uint256 date,\n        string memory notes,\n        bool passed\n    ) {\n        QualityCheck memory check = products[_productId].qualityChecks[_checkId];\n        return (check.inspector, check.date, check.notes, check.passed);\n    }\n\n    // New function to get price history\n    function getPriceHistory(uint256 _productId) public view returns (uint256[] memory timestamps, uint256[] memory prices) {\n        PriceHistory[] storage history = products[_productId].priceHistory;\n        uint256 length = history.length;\n        \n        timestamps = new uint256[](length);\n        prices = new uint256[](length);\n        \n        for (uint256 i = 0; i < length; i++) {\n            timestamps[i] = history[i].timestamp;\n            prices[i] = history[i].price;\n        }\n        \n        return (timestamps, prices);\n    }\n\n    function deposit() public payable {\n        balances[msg.sender] += msg.value;\n    }\n\n    function withdraw(uint256 _amount) public {\n        require(balances[msg.sender] >= _amount, \"Insufficient balance\");\n        balances[msg.sender] -= _amount;\n        payable(msg.sender).transfer(_amount);\n    }\n\n    // New function for batch operations\n    function setProductExpiration(uint256 _productId, uint256 _expirationDate) public {\n        require(products[_productId].currentOwner == msg.sender, \"Only current owner can set expiration date\");\n        products[_productId].expirationDate = _expirationDate;\n        emit ProductExpirationSet(_productId, _expirationDate);\n    }\n\n    // New function for product recall\n    function recallProduct(uint256 _productId, string memory _reason) public {\n        require(hasRole(FARMER_ROLE, msg.sender) || hasRole(PROCESSOR_ROLE, msg.sender), \"Must have farmer or processor role to recall product\");\n        products[_productId].status = ProductStatus.Rejected;\n        emit ProductRecalled(_productId, msg.sender, _reason);\n    }\n\n    // New function for reporting issues\n    function reportIssue(uint256 _productId, string memory _description) public {\n        require(actors[msg.sender].isRegistered, \"Must be a registered actor to report issues\");\n        issues[_productId].push(Issue(msg.sender, block.timestamp, _description));\n        emit IssueReported(_productId, msg.sender, _description);\n    }\n\n    // Add these new events and structs\n    event ProductExpirationSet(uint256 indexed productId, uint256 expirationDate);\n    event ProductRecalled(uint256 indexed productId, address indexed recalledBy, string reason);\n    event IssueReported(uint256 indexed productId, address indexed reportedBy, string description);\n\n    struct Issue {\n        address reportedBy;\n        uint256 timestamp;\n        string description;\n    }\n\n    // Add these new mappings and variables to the contract\n    mapping(uint256 => Issue[]) public issues;\n\n    // New struct for transportation information\n    struct TransportInfo {\n        address carrier;\n        uint256 departureTime;\n        uint256 estimatedArrivalTime;\n        uint256 actualArrivalTime;\n        string sourceLocation;\n        string destinationLocation;\n        TransportStatus status;\n    }\n\n    // New enum for transport status\n    enum TransportStatus { Pending, InTransit, Delivered, Delayed }\n\n    mapping(uint256 => TransportInfo[]) public productTransportHistory;\n\n    // New function to add transport information\n    function addTransportInfo(uint256 _productId, address _carrier, uint256 _estimatedArrivalTime, string memory _sourceLocation, string memory _destinationLocation) public {\n        require(hasRole(DISTRIBUTOR_ROLE, msg.sender) || hasRole(RETAILER_ROLE, msg.sender), \"Must have distributor or retailer role to add transport info\");\n        require(products[_productId].currentOwner == msg.sender, \"Only current owner can add transport info\");\n        \n        TransportInfo memory newTransport = TransportInfo({\n            carrier: _carrier,\n            departureTime: block.timestamp,\n            estimatedArrivalTime: _estimatedArrivalTime,\n            actualArrivalTime: 0,\n            sourceLocation: _sourceLocation,\n            destinationLocation: _destinationLocation,\n            status: TransportStatus.Pending\n        });\n        \n        productTransportHistory[_productId].push(newTransport);\n        emit TransportInfoUpdated(_productId, productTransportHistory[_productId].length - 1, TransportStatus.Pending);\n    }\n\n    // New function to update transport status\n    function updateTransportStatus(uint256 _productId, uint256 _transportIndex, TransportStatus _newStatus) public {\n        require(hasRole(DISTRIBUTOR_ROLE, msg.sender) || hasRole(RETAILER_ROLE, msg.sender), \"Must have distributor or retailer role to update transport status\");\n        require(_transportIndex < productTransportHistory[_productId].length, \"Invalid transport index\");\n        \n        TransportInfo storage transport = productTransportHistory[_productId][_transportIndex];\n        transport.status = _newStatus;\n        \n        if (_newStatus == TransportStatus.Delivered) {\n            transport.actualArrivalTime = block.timestamp;\n        }\n        \n        emit TransportInfoUpdated(_productId, _transportIndex, _newStatus);\n    }\n\n    // New function to get transport information\n    function getTransportInfo(uint256 _productId, uint256 _transportIndex) public view returns (\n        address carrier,\n        uint256 departureTime,\n        uint256 estimatedArrivalTime,\n        uint256 actualArrivalTime,\n        string memory sourceLocation,\n        string memory destinationLocation,\n        TransportStatus status\n    ) {\n        require(_transportIndex < productTransportHistory[_productId].length, \"Invalid transport index\");\n        TransportInfo storage transport = productTransportHistory[_productId][_transportIndex];\n        return (\n            transport.carrier,\n            transport.departureTime,\n            transport.estimatedArrivalTime,\n            transport.actualArrivalTime,\n            transport.sourceLocation,\n            transport.destinationLocation,\n            transport.status\n        );\n    }\n\n    // New struct for Farm\n    struct Farm {\n        string name;\n        address owner;\n        bool isRegistered;\n    }\n\n    // New struct for Shipment\n    struct Shipment {\n        uint256 id;\n        uint256[] productIds;\n        address farm;\n        address currentOwner;\n        ShipmentStatus status;\n    }\n\n    // New enum for Shipment status\n    enum ShipmentStatus { Created, InTransit, Delivered, Rejected }\n\n    // New mappings\n    mapping(address => Farm) public farms;\n    mapping(uint256 => Shipment) public shipments;\n    uint256 public shipmentCount;\n\n    // New events\n    event FarmRegistered(address indexed farmAddress, string name);\n    event ShipmentCreated(uint256 indexed shipmentId, address indexed farm, uint256[] productIds);\n    event ShipmentStatusUpdated(uint256 indexed shipmentId, ShipmentStatus status);\n\n    // New function to register a farm\n    function registerFarm(string memory _name) public {\n        require(!farms[msg.sender].isRegistered, \"Farm already registered\");\n        farms[msg.sender] = Farm(_name, msg.sender, true);\n        emit FarmRegistered(msg.sender, _name);\n    }\n\n    // New function to create a shipment\n    function createShipment(uint256[] memory _productIds) public {\n        require(farms[msg.sender].isRegistered, \"Must be a registered farm to create shipment\");\n        require(hasRole(FARMER_ROLE, msg.sender), \"Must have farmer role to create shipment\");\n        \n        shipmentCount++;\n        Shipment storage newShipment = shipments[shipmentCount];\n        newShipment.id = shipmentCount;\n        newShipment.productIds = _productIds;\n        newShipment.farm = msg.sender;\n        newShipment.currentOwner = msg.sender;\n        newShipment.status = ShipmentStatus.Created;\n\n        for (uint i = 0; i < _productIds.length; i++) {\n            require(products[_productIds[i]].currentOwner == msg.sender, \"You must own all products in the shipment\");\n        }\n\n        emit ShipmentCreated(shipmentCount, msg.sender, _productIds);\n    }\n\n    // New function to update shipment status\n    function updateShipmentStatus(uint256 _shipmentId, ShipmentStatus _newStatus) public {\n        require(shipments[_shipmentId].currentOwner == msg.sender, \"Only current owner can update the shipment status\");\n        shipments[_shipmentId].status = _newStatus;\n        emit ShipmentStatusUpdated(_shipmentId, _newStatus);\n    }\n\n    // New function to transfer shipment\n    function transferShipment(uint256 _shipmentId, address _newOwner) public {\n        require(shipments[_shipmentId].currentOwner == msg.sender, \"Only current owner can transfer the shipment\");\n        require(actors[_newOwner].isRegistered, \"Recipient must be a registered actor\");\n\n        Shipment storage shipment = shipments[_shipmentId];\n        shipment.currentOwner = _newOwner;\n\n        // Transfer all products in the shipment\n        for (uint i = 0; i < shipment.productIds.length; i++) {\n            _transferProduct(shipment.productIds[i], msg.sender, _newOwner);\n        }\n\n        emit ShipmentStatusUpdated(_shipmentId, ShipmentStatus.InTransit);\n    }\n\n    // New function to get shipment details\n    function getShipmentDetails(uint256 _shipmentId) public view returns (\n        uint256 id,\n        uint256[] memory productIds,\n        address farm,\n        address currentOwner,\n        ShipmentStatus status\n    ) {\n        Shipment storage shipment = shipments[_shipmentId];\n        return (\n            shipment.id,\n            shipment.productIds,\n            shipment.farm,\n            shipment.currentOwner,\n            shipment.status\n        );\n    }\n}\n",
  "sourcePath": "/Users/user/Documents/ripple-evm-contract/contracts/AgriSupplyChain.sol",
  "compiler": {
    "name": "solc",
    "version": "0.8.0+commit.c7dfd78e.Emscripten.clang"
  },
  "schemaVersion": "3.4.16",
  "updatedAt": "2024-10-11T16:23:21.394Z",
  "networkType": "ethereum",
  "devdoc": {
    "kind": "dev",
    "methods": {},
    "version": 1
  },
  "userdoc": {
    "kind": "user",
    "methods": {},
    "version": 1
  }
}