{
  "contractName": "SmallBusinessInventory",
  "abi": [
    {
      "inputs": [],
      "stateMutability": "nonpayable",
      "type": "constructor"
    },
    {
      "anonymous": false,
      "inputs": [
        {
          "indexed": false,
          "internalType": "uint256",
          "name": "index",
          "type": "uint256"
        },
        {
          "indexed": false,
          "internalType": "uint256",
          "name": "oldPrice",
          "type": "uint256"
        },
        {
          "indexed": false,
          "internalType": "uint256",
          "name": "newPrice",
          "type": "uint256"
        }
      ],
      "name": "PriceUpdated",
      "type": "event"
    },
    {
      "anonymous": false,
      "inputs": [
        {
          "indexed": false,
          "internalType": "uint256",
          "name": "index",
          "type": "uint256"
        },
        {
          "indexed": false,
          "internalType": "string",
          "name": "name",
          "type": "string"
        },
        {
          "indexed": false,
          "internalType": "uint256",
          "name": "quantity",
          "type": "uint256"
        },
        {
          "indexed": false,
          "internalType": "uint256",
          "name": "price",
          "type": "uint256"
        }
      ],
      "name": "ProductAdded",
      "type": "event"
    },
    {
      "anonymous": false,
      "inputs": [
        {
          "indexed": false,
          "internalType": "uint256",
          "name": "index",
          "type": "uint256"
        }
      ],
      "name": "ProductRemoved",
      "type": "event"
    },
    {
      "anonymous": false,
      "inputs": [
        {
          "indexed": false,
          "internalType": "uint256",
          "name": "index",
          "type": "uint256"
        },
        {
          "indexed": false,
          "internalType": "uint256",
          "name": "quantity",
          "type": "uint256"
        }
      ],
      "name": "ProductSold",
      "type": "event"
    },
    {
      "anonymous": false,
      "inputs": [
        {
          "indexed": false,
          "internalType": "uint256",
          "name": "index",
          "type": "uint256"
        },
        {
          "indexed": false,
          "internalType": "uint256",
          "name": "oldQuantity",
          "type": "uint256"
        },
        {
          "indexed": false,
          "internalType": "uint256",
          "name": "newQuantity",
          "type": "uint256"
        }
      ],
      "name": "QuantityUpdated",
      "type": "event"
    },
    {
      "inputs": [],
      "name": "owner",
      "outputs": [
        {
          "internalType": "address",
          "name": "",
          "type": "address"
        }
      ],
      "stateMutability": "view",
      "type": "function",
      "constant": true
    },
    {
      "inputs": [],
      "name": "productIndex",
      "outputs": [
        {
          "internalType": "uint256",
          "name": "",
          "type": "uint256"
        }
      ],
      "stateMutability": "view",
      "type": "function",
      "constant": true
    },
    {
      "inputs": [
        {
          "internalType": "uint256",
          "name": "",
          "type": "uint256"
        }
      ],
      "name": "products",
      "outputs": [
        {
          "internalType": "string",
          "name": "name",
          "type": "string"
        },
        {
          "internalType": "uint256",
          "name": "quantity",
          "type": "uint256"
        },
        {
          "internalType": "uint256",
          "name": "price",
          "type": "uint256"
        }
      ],
      "stateMutability": "view",
      "type": "function",
      "constant": true
    },
    {
      "inputs": [
        {
          "internalType": "string",
          "name": "name",
          "type": "string"
        },
        {
          "internalType": "uint256",
          "name": "quantity",
          "type": "uint256"
        },
        {
          "internalType": "uint256",
          "name": "price",
          "type": "uint256"
        }
      ],
      "name": "addProduct",
      "outputs": [],
      "stateMutability": "nonpayable",
      "type": "function"
    },
    {
      "inputs": [
        {
          "internalType": "uint256",
          "name": "index",
          "type": "uint256"
        },
        {
          "internalType": "uint256",
          "name": "quantity",
          "type": "uint256"
        }
      ],
      "name": "updateQuantity",
      "outputs": [],
      "stateMutability": "nonpayable",
      "type": "function"
    },
    {
      "inputs": [
        {
          "internalType": "uint256",
          "name": "index",
          "type": "uint256"
        },
        {
          "internalType": "uint256",
          "name": "quantity",
          "type": "uint256"
        }
      ],
      "name": "sellProduct",
      "outputs": [],
      "stateMutability": "nonpayable",
      "type": "function"
    },
    {
      "inputs": [
        {
          "internalType": "uint256",
          "name": "index",
          "type": "uint256"
        }
      ],
      "name": "removeProduct",
      "outputs": [],
      "stateMutability": "nonpayable",
      "type": "function"
    },
    {
      "inputs": [
        {
          "internalType": "uint256",
          "name": "index",
          "type": "uint256"
        }
      ],
      "name": "checkProductQuantity",
      "outputs": [
        {
          "internalType": "uint256",
          "name": "quantity",
          "type": "uint256"
        }
      ],
      "stateMutability": "view",
      "type": "function",
      "constant": true
    },
    {
      "inputs": [],
      "name": "getProducts",
      "outputs": [
        {
          "components": [
            {
              "internalType": "string",
              "name": "name",
              "type": "string"
            },
            {
              "internalType": "uint256",
              "name": "quantity",
              "type": "uint256"
            },
            {
              "internalType": "uint256",
              "name": "price",
              "type": "uint256"
            }
          ],
          "internalType": "struct SmallBusinessInventory.Product[]",
          "name": "",
          "type": "tuple[]"
        }
      ],
      "stateMutability": "view",
      "type": "function",
      "constant": true
    },
    {
      "inputs": [
        {
          "internalType": "uint256",
          "name": "index",
          "type": "uint256"
        },
        {
          "internalType": "uint256",
          "name": "newPrice",
          "type": "uint256"
        }
      ],
      "name": "changeProductPrice",
      "outputs": [],
      "stateMutability": "nonpayable",
      "type": "function"
    },
    {
      "inputs": [
        {
          "internalType": "uint256",
          "name": "index",
          "type": "uint256"
        }
      ],
      "name": "getProductDetails",
      "outputs": [
        {
          "internalType": "string",
          "name": "name",
          "type": "string"
        },
        {
          "internalType": "uint256",
          "name": "quantity",
          "type": "uint256"
        },
        {
          "internalType": "uint256",
          "name": "price",
          "type": "uint256"
        }
      ],
      "stateMutability": "view",
      "type": "function",
      "constant": true
    }
  ],
  "bytecode": "0x608060405234801561001057600080fd5b5033600260006101000a81548173ffffffffffffffffffffffffffffffffffffffff021916908373ffffffffffffffffffffffffffffffffffffffff160217905550611bfe806100616000396000f3fe608060405234801561001057600080fd5b50600436106100a95760003560e01c80637acc0b20116100715780637acc0b20146101505780638da5cb5b14610182578063c29b2f20146101a0578063c897d5a6146101be578063d02b750f146101dc578063f1d36cbc1461020c576100a9565b8063125b0b34146100ae57806318b30a48146100ca5780635ee95cae146100e65780636813b53b1461010257806379cd492114610134575b600080fd5b6100c860048036038101906100c3919061115b565b610228565b005b6100e460048036038101906100df91906111eb565b610441565b005b61010060048036038101906100fb91906111c2565b610619565b005b61011c600480360381019061011791906111c2565b610817565b60405161012b9392919061169a565b60405180910390f35b61014e600480360381019061014991906111eb565b610944565b005b61016a600480360381019061016591906111c2565b610ad0565b6040516101799392919061169a565b60405180910390f35b61018a610b82565b604051610197919061165d565b60405180910390f35b6101a8610ba8565b6040516101b59190611678565b60405180910390f35b6101c6610d59565b6040516101d391906117d8565b60405180910390f35b6101f660048036038101906101f191906111c2565b610d5f565b60405161020391906117d8565b60405180910390f35b610226600480360381019061022191906111eb565b610dc2565b005b600260009054906101000a900473ffffffffffffffffffffffffffffffffffffffff1673ffffffffffffffffffffffffffffffffffffffff163373ffffffffffffffffffffffffffffffffffffffff16146102b8576040517f08c379a00000000000000000000000000000000000000000000000000000000081526004016102af90611758565b60405180910390fd5b60008351116102fc576040517f08c379a00000000000000000000000000000000000000000000000000000000081526004016102f390611798565b60405180910390fd5b6000821161033f576040517f08c379a0000000000000000000000000000000000000000000000000000000008152600401610336906116f8565b60405180910390fd5b60008111610382576040517f08c379a0000000000000000000000000000000000000000000000000000000008152600401610379906117b8565b60405180910390fd5b604051806060016040528084815260200183815260200182815250600080600154815260200190815260200160002060008201518160000190805190602001906103cd929190610f4d565b5060208201518160010155604082015181600201559050507f0107e99fb43ba873db8a5ce7c34a12cd44cd3041167cff32040ddb6aca455ae660015484848460405161041c94939291906117f3565b60405180910390a16001600081548092919061043790611aca565b9190505550505050565b600260009054906101000a900473ffffffffffffffffffffffffffffffffffffffff1673ffffffffffffffffffffffffffffffffffffffff163373ffffffffffffffffffffffffffffffffffffffff16146104d1576040517f08c379a00000000000000000000000000000000000000000000000000000000081526004016104c890611758565b60405180910390fd5b6001548210610515576040517f08c379a000000000000000000000000000000000000000000000000000000000815260040161050c90611778565b60405180910390fd5b8060008084815260200190815260200160002060010154101561056d576040517f08c379a000000000000000000000000000000000000000000000000000000000815260040161056490611738565b60405180910390fd5b600081116105b0576040517f08c379a00000000000000000000000000000000000000000000000000000000081526004016105a7906116d8565b60405180910390fd5b8060008084815260200190815260200160002060010160008282546105d591906119bc565b925050819055507f23a1684ce44b9a79ff32baebeef9269b128c6e21d507a2374852b1bb48325027828260405161060d92919061183f565b60405180910390a15050565b600260009054906101000a900473ffffffffffffffffffffffffffffffffffffffff1673ffffffffffffffffffffffffffffffffffffffff163373ffffffffffffffffffffffffffffffffffffffff16146106a9576040517f08c379a00000000000000000000000000000000000000000000000000000000081526004016106a090611758565b60405180910390fd5b60015481106106ed576040517f08c379a00000000000000000000000000000000000000000000000000000000081526004016106e490611778565b60405180910390fd5b60008190505b6001805461070191906119bc565b811015610782576000806001836107189190611966565b8152602001908152602001600020600080838152602001908152602001600020600082018160000190805461074c90611a98565b610757929190610fd3565b506001820154816001015560028201548160020155905050808061077a90611aca565b9150506106f3565b506000806001805461079491906119bc565b8152602001908152602001600020600080820160006107b39190611060565b600182016000905560028201600090555050600160008154809291906107d890611a6e565b91905055507f07015631cff457b5b13492c2045e70c6305a0a4aa773e432e79abbe2cf52c1eb8160405161080c91906117d8565b60405180910390a150565b60606000806001548410610860576040517f08c379a000000000000000000000000000000000000000000000000000000000815260040161085790611778565b60405180910390fd5b600080600086815260200190815260200160002060405180606001604052908160008201805461088f90611a98565b80601f01602080910402602001604051908101604052809291908181526020018280546108bb90611a98565b80156109085780601f106108dd57610100808354040283529160200191610908565b820191906000526020600020905b8154815290600101906020018083116108eb57829003601f168201915b50505050508152602001600182015481526020016002820154815250509050806000015181602001518260400151935093509350509193909250565b600260009054906101000a900473ffffffffffffffffffffffffffffffffffffffff1673ffffffffffffffffffffffffffffffffffffffff163373ffffffffffffffffffffffffffffffffffffffff16146109d4576040517f08c379a00000000000000000000000000000000000000000000000000000000081526004016109cb90611758565b60405180910390fd5b6001548210610a18576040517f08c379a0000000000000000000000000000000000000000000000000000000008152600401610a0f90611778565b60405180910390fd5b6000811015610a5c576040517f08c379a0000000000000000000000000000000000000000000000000000000008152600401610a5390611718565b60405180910390fd5b600080600084815260200190815260200160002060010154905081600080858152602001908152602001600020600101819055507f5170190995b02fc1ea399c439b01725a8bd24a969fcd0b83453e3fd25ba75360838284604051610ac393929190611868565b60405180910390a1505050565b6000602052806000526040600020600091509050806000018054610af390611a98565b80601f0160208091040260200160405190810160405280929190818152602001828054610b1f90611a98565b8015610b6c5780601f10610b4157610100808354040283529160200191610b6c565b820191906000526020600020905b815481529060010190602001808311610b4f57829003601f168201915b5050505050908060010154908060020154905083565b600260009054906101000a900473ffffffffffffffffffffffffffffffffffffffff1681565b6060600060015467ffffffffffffffff811115610bee577f4e487b7100000000000000000000000000000000000000000000000000000000600052604160045260246000fd5b604051908082528060200260200182016040528015610c2757816020015b610c146110a0565b815260200190600190039081610c0c5790505b50905060005b600154811015610d5157600080828152602001908152602001600020604051806060016040529081600082018054610c6490611a98565b80601f0160208091040260200160405190810160405280929190818152602001828054610c9090611a98565b8015610cdd5780601f10610cb257610100808354040283529160200191610cdd565b820191906000526020600020905b815481529060010190602001808311610cc057829003601f168201915b5050505050815260200160018201548152602001600282015481525050828281518110610d33577f4e487b7100000000000000000000000000000000000000000000000000000000600052603260045260246000fd5b60200260200101819052508080610d4990611aca565b915050610c2d565b508091505090565b60015481565b60006001548210610da5576040517f08c379a0000000000000000000000000000000000000000000000000000000008152600401610d9c90611778565b60405180910390fd5b600080838152602001908152602001600020600101549050919050565b600260009054906101000a900473ffffffffffffffffffffffffffffffffffffffff1673ffffffffffffffffffffffffffffffffffffffff163373ffffffffffffffffffffffffffffffffffffffff1614610e52576040517f08c379a0000000000000000000000000000000000000000000000000000000008152600401610e4990611758565b60405180910390fd5b6001548210610e96576040517f08c379a0000000000000000000000000000000000000000000000000000000008152600401610e8d90611778565b60405180910390fd5b60008111610ed9576040517f08c379a0000000000000000000000000000000000000000000000000000000008152600401610ed0906117b8565b60405180910390fd5b600080600084815260200190815260200160002060020154905081600080858152602001908152602001600020600201819055507f15819dd2fd9f6418b142e798d08a18d0bf06ea368f4480b7b0d3f75bd966bc48838284604051610f4093929190611868565b60405180910390a1505050565b828054610f5990611a98565b90600052602060002090601f016020900481019282610f7b5760008555610fc2565b82601f10610f9457805160ff1916838001178555610fc2565b82800160010185558215610fc2579182015b82811115610fc1578251825591602001919060010190610fa6565b5b509050610fcf91906110c1565b5090565b828054610fdf90611a98565b90600052602060002090601f016020900481019282611001576000855561104f565b82601f10611012578054855561104f565b8280016001018555821561104f57600052602060002091601f016020900482015b8281111561104e578254825591600101919060010190611033565b5b50905061105c91906110c1565b5090565b50805461106c90611a98565b6000825580601f1061107e575061109d565b601f01602090049060005260206000209081019061109c91906110c1565b5b50565b60405180606001604052806060815260200160008152602001600081525090565b5b808211156110da5760008160009055506001016110c2565b5090565b60006110f16110ec846118d0565b61189f565b90508281526020810184848401111561110957600080fd5b611114848285611a2c565b509392505050565b600082601f83011261112d57600080fd5b813561113d8482602086016110de565b91505092915050565b60008135905061115581611bb1565b92915050565b60008060006060848603121561117057600080fd5b600084013567ffffffffffffffff81111561118a57600080fd5b6111968682870161111c565b93505060206111a786828701611146565b92505060406111b886828701611146565b9150509250925092565b6000602082840312156111d457600080fd5b60006111e284828501611146565b91505092915050565b600080604083850312156111fe57600080fd5b600061120c85828601611146565b925050602061121d85828601611146565b9150509250929050565b600061123383836115ef565b905092915050565b611244816119f0565b82525050565b600061125582611910565b61125f8185611933565b93508360208202850161127185611900565b8060005b858110156112ad578484038952815161128e8582611227565b945061129983611926565b925060208a01995050600181019050611275565b50829750879550505050505092915050565b60006112ca8261191b565b6112d48185611944565b93506112e4818560208601611a3b565b6112ed81611ba0565b840191505092915050565b60006113038261191b565b61130d8185611955565b935061131d818560208601611a3b565b61132681611ba0565b840191505092915050565b600061133e602783611955565b91507f53616c65207175616e74697479206d757374206265206772656174657220746860008301527f616e207a65726f000000000000000000000000000000000000000000000000006020830152604082019050919050565b60006113a4602a83611955565b91507f50726f64756374207175616e74697479206d757374206265206772656174657260008301527f207468616e207a65726f000000000000000000000000000000000000000000006020830152604082019050919050565b600061140a602383611955565b91507f50726f64756374207175616e746974792063616e6e6f74206265206e6567617460008301527f69766500000000000000000000000000000000000000000000000000000000006020830152604082019050919050565b6000611470601883611955565b91507f4e6f7420656e6f7567682073746f636b20746f2073656c6c00000000000000006000830152602082019050919050565b60006114b0603283611955565b91507f4f6e6c792074686520636f6e7472616374206f776e65722063616e207065726660008301527f6f726d2074686973206f7065726174696f6e00000000000000000000000000006020830152604082019050919050565b6000611516601183611955565b91507f50726f64756374206e6f7420666f756e640000000000000000000000000000006000830152602082019050919050565b6000611556601c83611955565b91507f50726f64756374206e616d652063616e6e6f7420626520656d707479000000006000830152602082019050919050565b6000611596602783611955565b91507f50726f64756374207072696365206d757374206265206772656174657220746860008301527f616e207a65726f000000000000000000000000000000000000000000000000006020830152604082019050919050565b6000606083016000830151848203600086015261160c82826112bf565b9150506020830151611621602086018261163f565b506040830151611634604086018261163f565b508091505092915050565b61164881611a22565b82525050565b61165781611a22565b82525050565b6000602082019050611672600083018461123b565b92915050565b60006020820190508181036000830152611692818461124a565b905092915050565b600060608201905081810360008301526116b481866112f8565b90506116c3602083018561164e565b6116d0604083018461164e565b949350505050565b600060208201905081810360008301526116f181611331565b9050919050565b6000602082019050818103600083015261171181611397565b9050919050565b60006020820190508181036000830152611731816113fd565b9050919050565b6000602082019050818103600083015261175181611463565b9050919050565b60006020820190508181036000830152611771816114a3565b9050919050565b6000602082019050818103600083015261179181611509565b9050919050565b600060208201905081810360008301526117b181611549565b9050919050565b600060208201905081810360008301526117d181611589565b9050919050565b60006020820190506117ed600083018461164e565b92915050565b6000608082019050611808600083018761164e565b818103602083015261181a81866112f8565b9050611829604083018561164e565b611836606083018461164e565b95945050505050565b6000604082019050611854600083018561164e565b611861602083018461164e565b9392505050565b600060608201905061187d600083018661164e565b61188a602083018561164e565b611897604083018461164e565b949350505050565b6000604051905081810181811067ffffffffffffffff821117156118c6576118c5611b71565b5b8060405250919050565b600067ffffffffffffffff8211156118eb576118ea611b71565b5b601f19601f8301169050602081019050919050565b6000819050602082019050919050565b600081519050919050565b600081519050919050565b6000602082019050919050565b600082825260208201905092915050565b600082825260208201905092915050565b600082825260208201905092915050565b600061197182611a22565b915061197c83611a22565b9250827fffffffffffffffffffffffffffffffffffffffffffffffffffffffffffffffff038211156119b1576119b0611b13565b5b828201905092915050565b60006119c782611a22565b91506119d283611a22565b9250828210156119e5576119e4611b13565b5b828203905092915050565b60006119fb82611a02565b9050919050565b600073ffffffffffffffffffffffffffffffffffffffff82169050919050565b6000819050919050565b82818337600083830152505050565b60005b83811015611a59578082015181840152602081019050611a3e565b83811115611a68576000848401525b50505050565b6000611a7982611a22565b91506000821415611a8d57611a8c611b13565b5b600182039050919050565b60006002820490506001821680611ab057607f821691505b60208210811415611ac457611ac3611b42565b5b50919050565b6000611ad582611a22565b91507fffffffffffffffffffffffffffffffffffffffffffffffffffffffffffffffff821415611b0857611b07611b13565b5b600182019050919050565b7f4e487b7100000000000000000000000000000000000000000000000000000000600052601160045260246000fd5b7f4e487b7100000000000000000000000000000000000000000000000000000000600052602260045260246000fd5b7f4e487b7100000000000000000000000000000000000000000000000000000000600052604160045260246000fd5b6000601f19601f8301169050919050565b611bba81611a22565b8114611bc557600080fd5b5056fea2646970667358221220d40a353ebc1cb0ec4cc5cf2c8942edb1f5edcd91d2d79349d83eabadad23fd6e64736f6c63430008000033",
  "immutableReferences": {},
  "source": "// SPDX-License-Identifier: GPL-3.0\npragma solidity >=0.4.16 <0.9.0;\n\ncontract SmallBusinessInventory {\n    struct Product {\n        string name;\n        uint quantity;\n        uint price;\n    }\n\n    mapping (uint => Product) public products;\n    uint public productIndex;\n\n    address public owner;\n\n    event ProductAdded(uint index, string name, uint quantity, uint price);\n    event QuantityUpdated(uint index, uint oldQuantity, uint newQuantity);\n    event ProductSold(uint index, uint quantity);\n    event ProductRemoved(uint index);\n    event PriceUpdated(uint index, uint oldPrice, uint newPrice);\n\n    modifier onlyOwner() {\n        require(msg.sender == owner, \"Only the contract owner can perform this operation\");\n        _;\n    }\n\n    constructor() {\n        owner = msg.sender;\n    }\n\n    function addProduct(string memory name, uint quantity, uint price) public onlyOwner {\n        require(bytes(name).length > 0, \"Product name cannot be empty\");\n        require(quantity > 0, \"Product quantity must be greater than zero\");\n        require(price > 0, \"Product price must be greater than zero\");\n\n        products[productIndex] = Product(name, quantity, price);\n        emit ProductAdded(productIndex, name, quantity, price);\n        productIndex++;\n    }\n\n    function updateQuantity(uint index, uint quantity) public onlyOwner {\n        require(index < productIndex, \"Product not found\");\n        require(quantity >= 0, \"Product quantity cannot be negative\");\n\n        uint oldQuantity = products[index].quantity;\n        products[index].quantity = quantity;\n        emit QuantityUpdated(index, oldQuantity, quantity);\n    }\n\n    function sellProduct(uint index, uint quantity) public onlyOwner {\n        require(index < productIndex, \"Product not found\");\n        require(products[index].quantity >= quantity, \"Not enough stock to sell\");\n        require(quantity > 0, \"Sale quantity must be greater than zero\");\n\n        products[index].quantity -= quantity;\n        emit ProductSold(index, quantity);\n    }\n\n    function removeProduct(uint index) public onlyOwner {\n        require(index < productIndex, \"Product not found\");\n\n        for (uint i = index; i < productIndex-1; i++){\n            products[i] = products[i+1];\n        }\n        delete products[productIndex-1];\n        productIndex--;\n        emit ProductRemoved(index);\n    }\n\n    function checkProductQuantity(uint index) public view returns (uint quantity) {\n        require(index < productIndex, \"Product not found\");\n        return products[index].quantity;\n    }\n\n    function getProducts() public view returns (Product[] memory) {\n       Product[] memory productList = new Product[](productIndex);\n        for (uint i = 0; i < productIndex; i++) {\n            productList[i] = products[i];\n        }\n        return productList;\n    }\n\n    function changeProductPrice(uint index, uint newPrice) public onlyOwner {\n        require(index < productIndex, \"Product not found\");\n        require(newPrice > 0, \"Product price must be greater than zero\");\n\n        uint oldPrice = products[index].price;\n        products[index].price = newPrice;\n        emit PriceUpdated(index, oldPrice, newPrice);\n    }\n\n    function getProductDetails(uint index) public view returns (string memory name, uint quantity, uint price) {\n        require(index < productIndex, \"Product not found\");\n\n        Product memory product = products[index];\n        return (product.name, product.quantity, product.price);\n    }\n}\n",
  "sourcePath": "/Users/user/Desktop/ap/contracts/SmallBusinessInventory.sol",
  "compiler": {
    "name": "solc",
    "version": "0.8.0+commit.c7dfd78e.Emscripten.clang"
  },
  "schemaVersion": "3.4.16",
  "updatedAt": "2024-04-02T20:27:39.144Z",
  "networkType": "ethereum",
  "devdoc": {
    "kind": "dev",
    "methods": {},
    "version": 1
  },
  "userdoc": {
    "kind": "user",
    "methods": {},
    "version": 1
  }
}